:020000040800F2
:100000004823002001010008090100080B01000835
:100010000D0100080F010008110100080000000098
:1000200000000000000000000000000013010008B4
:10003000150100080000000017010008B51C0008A9
:100040001B0100081B0100081B010008991800088B
:100050001B0100081B0100081B0100081B01000810
:100060001B0100081B0100081B0100081B01000800
:100070001B0100081B0100081B0100081B010008F0
:100080001B0100081B0100081B0100081B010008E0
:100090001B0100081B0100081B0100081B010008D0
:1000A0001B0100081B0100081B0100081B010008C0
:1000B0001B0100081B0100081B0100081B010008B0
:1000C0001B0100081B0100081B0100081B010008A0
:1000D0001B0100081B0100088D1F00081B01000800
:1000E0001B0100081B0100081B010008DFF80CD0F1
:1000F00000F09EFB00480047852A000848230020A6
:100100000648804706480047FEE7FEE7FEE7FEE7B1
:10011000FEE7FEE7FEE7FEE7FEE7FEE7691D0008F3
:10012000ED0000080FB400B58DB010A909900B9038
:1001300000914FF0FF300A9000200C900548069087
:10014000054807906A4609A80F9900F00FFA0DB00C
:100150005DF814FB89050008A70500082DE9FF5F7D
:100160001D464FF0FF3BD5E9014691465F464FF0F3
:100170000008A9697F1C01988847296A8246884738
:100180000028F6D1BAF1FF3F0CD024F4C064002E51
:1001900019DD600614D5BAF12B0F09D0BAF12D0F75
:1001A0000ED103E0584604B0BDE8F09F44F48064EB
:1001B000A9697F1C01988847761E8246002E02DDC1
:1001C000BAF1300F03D0B9F1000F26D032E0A9699F
:1001D000761E44F400747F1C019888478246002EE6
:1001E00005DDBAF1780F06D0BAF1580F03D0B9F196
:1001F000000F10D01EE0B9F1000F02D0B9F1100FBE
:1002000018D1A969761E24F400747F1C01988847D0
:100210008246102002E0082000E00A20814609E022
:1002200008FB0908A969761E44F400747F1C019834
:1002300088478246002E05DD4946504600F081F988
:100240000028EDDAE96901988847A00502D46FF02B
:100250000100A8E7E00725D1600613D5600502D5A7
:10026000C8F1000000E0404629680A1D2A600968BC
:10027000220501D5087015E0220701D5088011E09C
:1002800008600FE02868011D29600068210502D57B
:1002900080F8008006E0210702D5A0F8008001E088
:1002A000C0F8008038467EE72DE9FE4F81EA03045E
:1002B00004F0004421F0004100944FF0000B23F0C3
:1002C000004350EA01045ED052EA03045BD0C3F35A
:1002D0000A54C1F30A552C44A4F2F3340194A0FB50
:1002E0000254C1F3130141F48011C3F3130343F427
:1002F000801301FB024400FB034E840A970A44EA80
:10030000815447EA8357A4FB076802958D0A05FBD1
:1003100007854FEA932C04FB0C542705029D4FEAF6
:10032000065847EA1637B5EB08056EEB070C870E43
:10033000920E47EA811742EA8312A7FB0201B6EB4D
:100340000B0164EB00042B0D43EA0C335E1844EB05
:100350001C50DA465146E7FB0201C5F313044FEA8D
:100360000B3343EA14534FEA0432019C43EA060379
:10037000A4F10C040294009CCDE900B400F033F920
:1003800003B0BDE8F08F00200146F9E72DE9F04DFC
:1003900081EA030404F0004B21F0004514464FF0BD
:1003A000000A23F0004150EA050220D054EA01027D
:1003B0001DD0C5F30A570246C5F31303C1F313005A
:1003C000C1F30A5640F4801543F48013A7EB0608E6
:1003D000101BD64608F2FD3873EB050002D308F176
:1003E000010801E092185B41B8F1000F03DA002028
:1003F0000146BDE8F08D00204FF48011064684468A
:100400000EE0171B73EB050705D3121B63EB050307
:1004100006434CEA010C49084FEA300092185B4150
:1004200050EA0107EDD152EA030012D082EA04003B
:1004300083EA0501084305D0101BAB4106D2012217
:10044000002306E000224FF0004302E06FF00102BB
:1004500053101AEB06004CEB085110EB0A0041EB6D
:100460000B01BDE8F04D00F0AFB80EB540F23341DE
:1004700002910021CDE900110A460B4600F0B3F8C5
:1004800003B000BD30B5041E71F1000404DB4FF071
:100490000044404264EB0101141E73F1000405DBCB
:1004A0001C464FF00043524263EB04038B4208BFEB
:1004B000824230BD30B50B46014600202022012487
:1004C00009E021FA02F59D4205D303FA02F5491B22
:1004D00004FA02F52844151EA2F10102F1DC30BD38
:1004E0002DE9F05F0546002092469B468846064669
:1004F000814640241BE0284641464746224600F0FC
:10050000B8F953465A46C01A914110D311461846BD
:10051000224600F09FF92D1A67EB01084F4622464C
:100520000120002100F096F917EB00094E41201E32
:10053000A4F10104DFDC484631462A464346BDE8C3
:10054000F09F3A2800D2303820F02002412A01D30F
:10055000A2F13700884201D34FF0FF30704700000E
:10056000026811441378016018467047D16004494D
:1005700051610449116200211161114600F0A0B9D6
:1005800061050008B7080008426842B1016811F827
:10059000013B23B1521EC0E90012184670470121E9
:1005A000C160881E704742685AB1C368016843B988
:1005B00083688B4205D0491E521CC0E900120020FE
:1005C00070474FF0FF30704710B5141E73F10004F0
:1005D00008DA401C41F1000192185B411A4301D135
:1005E00020F0010010BD2DE9F04D92469B4611B15F
:1005F000B1FA81F202E0B0FA80F22032904600F0C7
:1006000029F904460F4640EA0A0041EA0B01534625
:100610005A46084313D0114653EA010019D0C8F1D5
:100620004002504600F025F905460E465046594610
:10063000424600F00FF9084305D0012004E02046AF
:100640003946BDE8F08D0020054346EAE0762C43AC
:1006500037430A986305E40AA0EB08000022FD0A6C
:1006600044EA47540A3002D500200146E9E7010573
:1006700010196941DDE9084500196941BDE8F04DEF
:10068000A2E72DE9FE4F804681EA0300C00F0C4629
:10069000009021F0004123F00045B8EB0200A94191
:1006A00005D24046214690461C460B46024623F0A2
:1006B0000040104347D0270DC7F30A00C3F30A5187
:1006C0000290401A019040286BDAC3F3130040F403
:1006D000801B0098924620B10023D2EB030A63EB03
:1006E0000B0B01985946C0F14002504600F0B2F899
:1006F00006460D4650465946019A00F0CAF810EBDE
:1007000008006141002487EA115284EAE7731A4322
:1007100040D0009A62B3019A012A4FEA075215DCD1
:10072000001B61EB02014FF0004202EA0752CDE9E3
:100730000042001C41F5801132462B46FFF753FF63
:1007400003B0BDE8F08F40462146F9E7001B61EB9E
:100750000201001C41F5801300185B412018A2F52E
:10076000001747EB030140EAD570B6196D4111E05F
:100770006D084FEA360645EAC0754FEA0752001B7E
:1007800061EB0201001C41F5801149084FEA30007D
:100790000019514132462B4603B0BDE8F04FFFF738
:1007A00013BF0098012240000023D0EB020263EB4C
:1007B000E073009821464FEAE074B8EB000061EB6B
:1007C0000401E9E783F000435BE781F0004158E76B
:1007D000C1F30A52C1F3130140F2FF3341F4801117
:1007E0009A4202DA00200146704740F233439A42AF
:1007F000A2F2334202DC524200F03BB800F02AB8C9
:1008000030B5041E71F1000404DB4FF00044404297
:1008100064EB0101141E73F1000405DB1C464FF06C
:100820000043524263EB0403994208BF904230BD3B
:10083000064C074D06E0E06840F0010394E807002D
:1008400098471034AC42F6D3FFF754FCE02B000875
:10085000002C0008202A04DB203A00FA02F10020D4
:1008600070479140C2F1200320FA03F319439040EE
:100870007047202A04DB203A21FA02F00021704759
:1008800021FA02F3D040C2F12002914008431946F8
:100890007047202A06DBCB17203A41FA02F043EAE0
:1008A000E07306E041FA02F3D040C2F12002914029
:1008B000084319467047C0B24FF4F05100F096B9A2
:1008C0002DE9F34F8BB04FF0000801F10C000C46FE
:1008D0004FF0010B46460DF1080A019062690121B3
:1008E00001989047051E2DD0252D2CD0216A8847D0
:1008F000C0B16269012101989047216A88470028A8
:10090000F7D1411E62690198904700E0761CA16909
:100910000B988847216A88470028F7D1E1690B982E
:100920008847DBE7A1690B9888470746A84201D1B1
:10093000761CD3E7E1690B9888477F1C02D1B8F198
:10094000000F6FD046E1002762693D4639460198A5
:1009500090472A2804D16269012101989047012516
:10096000DFF884926269012101989047A0F130017B
:100970000A290AD24F45E5DC07EB870100EB410766
:10098000303FDFD445F01005ECE7E90601D46FF005
:1009900000476C280AD04C2814D0682815D06A2843
:1009A0000DD074281CD07A281AD01DE0626901216C
:1009B000019890476C2802D045F0040514E045F0FA
:1009C00002050DE045F020050AE062690121019869
:1009D0009047682802D045F0080505E045F4006519
:1009E0006269012101989047C4E9015765283DD00B
:1009F00019DC58287AD00CDC452837D004DC2528AF
:100A000026D0412831D131E046282FD047282CD19B
:100A10002CE05B2877D0612828D063287CD064281C
:100A200023D15AE0D0E06F2848D008DC66281DD0DA
:100A300067281BD0692821D06E2816D127E070289E
:100A400045D0732868D0752847D078280DD14DE05F
:100A5000A1690B988847054625283FF469AFE169ED
:100A60000B9888476D1C3FF46AAFB3E023466A4693
:100A70006FF001000B99AFF300809EE045F040005D
:100A80006060A80723464FF0000236D43EE0E80736
:100A90007FF447AF2068011D21600068290501D55A
:100AA00006701BE7290701D5068017E7A90703D5BC
:100AB000F117C0E9006111E706600FE745F040005B
:100AC0006060A80723464FF0080216D41EE040F6E7
:100AD0000E0125EA0100606016E045F0400060600C
:100AE000A80723464FF00A0207D40FE045F0400064
:100AF0006060A80708D5234610226FF001000B990B
:100B0000AFF3008059E007E0234610226FF00100A8
:100B10000B99FFF723FB50E04FF000094F464B467F
:100B2000632802D05B2806D040E0E80601D401200B
:100B3000A06001273AE062690121019890475E2890
:100B400005D14FF001096269494601989047216932
:100B500039B900210A46534643F82120491C082987
:100B6000FADBB0B3216969B9C11700EBD162531147
:100B70000AEB830122F01F02821A01200B689040C9
:100B800003430B6062690121019890475D28E8D119
:100B9000B9F1000F09D00020514651F82020D2436E
:100BA00041F82020401C0828F7DB02AB22460097C2
:100BB0006FF001000B99AFF3008000280CDA401CA5
:100BC00008D1BBF1000F05D04FF0FF300DB0BDE8EC
:100BD000F08FFFE74046F9E7E90701D108F1010886
:100BE00006444FF0000B79E6CCCCCC0C7F2801D921
:100BF000002208E0064A02EB5002C007127800D13A
:100C0000120902F00F0201209040084070470000D6
:100C1000702B000870B58D1810F8014B14F003020A
:100C200001D110F8012B231106D110F8013B03E08C
:100C300010F8016B01F8016B521EF9D1ABB110F83D
:100C4000012B04F00C048A1A0C2C03D0A2EB8412A2
:100C50009B1C08E010F8014BA2EB0422F8E712F805
:100C6000014B01F8014B5B1EF9D5A942D4D30020FA
:100C700070BD00002DE9F0411248006840F40010FA
:100C80001049086000BF0F480838006800F00400F1
:100C90000028F8D00B4834300468B4F57A6F01D9D5
:100CA0004FF47A642046FFF7E0FB05464FF06632CA
:100CB000054BFFF7F9FA07460022044BFFF766FBE6
:100CC000BDE8F0810824014066660A400040AF405C
:100CD0001748806940F00800154988611548006888
:100CE00020F00F00134908601148406820F440408C
:100CF0000F4948600846406840F400404860084694
:100D0000806940F4007088610846C06840F4007053
:100D1000C8600846C06820F40070C8604FF2010047
:100D200005490860054804493031086070470000F3
:100D300000100240000C0140082401400001200086
:100D40002DE9F04105460F4616462C4600F09AF86C
:100D5000A02000F0CBF8304600F0C8F800F092F880
:100D6000A12000F0C3F804E0002000F051F804F8DE
:100D7000010B3846791ECFB20128F5DC012000F0C6
:100D800047F8207000F098F8BDE8F0812DE9F041B7
:100D900004460D461646274600F074F8A02000F0E1
:100DA000A5F8304600F0A2F803E017F8010B00F0B8
:100DB0009DF8281EA5F10101CDB2F6DC00F07CF80B
:100DC000BDE8F0810848806940F008000649886164
:100DD0000648006820F07F40044908600846006823
:100DE00040F0EE400860704700100240000C0140E7
:100DF000002109E0002201E0531C9AB240F6B8330A
:100E00009A42F9DB4B1C99B28142F3DB7047000038
:100E100070B50546012019490860002614E002203B
:100E200001F016FE01201549091F086001F010FEAF
:100E30006006040E1248D0F81C012044C4B2002001
:100E40000E49091F0860761C082EE8D3012001F026
:100E5000FFFD0DB1012000E00020084908600220DC
:100E600001F0F6FD01200649C1F8980101F0F0FDFE
:100E700000200249091F0860204670BD9C81214264
:100E80000080214210B50120094908600949C1F8D4
:100E90009801032001F0DCFD0020054908600120D5
:100EA00001F0D6FD00200349C1F8980110BD0000F3
:100EB0009C8121420080214210B500200949086030
:100EC0000949C1F89801032001F0C2FD012005493C
:100ED000091F086001F0BCFD01200349C1F89C0115
:100EE00010BD00009C812142008021427CB5054656
:100EF0001BA103C9CDE90001002416E01DF8040080
:100F0000284008B1012000E00020174908600220B5
:100F100001F09EFD01201549C1F8980101F098FDEE
:100F200000201149091F0860641C082CE6D3012029
:100F300001F08EFD01200C490860022001F088FDBF
:100F400001200A49C1F8980101F082FD0648803865
:100F5000066800200549C1F8980130467CBD0000B4
:100F600080402010080402019C812142008021421F
:100F70003EB504463E49D1E900208968CDE900200C
:100F8000029134B1012C13D0022C33D0032C6BD13D
:100F900046E03848006800B13EBD3748006808B9EF
:100FA000012000E000203449086000F08BFD5CE087
:100FB0003048006808B9012000E000202D49086091
:100FC0004FF6FF7000F048F92A48006868B12BA17D
:100FD000302000F0A1F900F095FD2C4A12685DF870
:100FE0002210782000F098F903E000F04DFD00F0A9
:100FF00069FD3AE01F48006800B9CDE72348006862
:10100000401C0321B0FBF1F201FB12001F490860F4
:101010000A4612685DF82210782000F07DF924E07D
:101020001448006800B9B7E719481849096850F82A
:101030002100401C3C21B0FBF1F201FB12001449DD
:10104000124A126841F8220010480068022808D1AC
:10105000084680681821B0FBF1F201FB12000C4930
:10106000886000F04FFD00E000BF00BF00BF93E7C5
:10107000642B00080800002004000020202020200D
:10108000202053657474696E670000000C00002016
:10109000B412002000BF00BF00BF00BF70470000B7
:1010A00010B5002407E0264850F8240041002448E9
:1010B00040F82410641C042CF5D300240CE02048D4
:1010C00050F824001E49103151F8241009680843D3
:1010D0001B4941F82400641C042CF0D300242CE0AC
:1010E000174850F82400B0F1FF3F10D114481038D1
:1010F00050F82400012800D11EE0012110481038CA
:1011000040F82410083801682046884714E00C484D
:1011100050F8240078B90A48103850F8240000B973
:101120000AE000210648103840F8241008384168C9
:101130002046884700E000BF641C042CD0D310BDBB
:10114000281300203048806940F00C002E49886147
:101150002E48006820F00F002C49086008460068FF
:1011600040F00800086029480C30006840F0010099
:1011700026490C3108602548001D006820F00F004A
:101180002249091D08600846006840F00800086010
:101190001E480C30006840F480701C490C31086017
:1011A0001B48006820F47F60194908600846006801
:1011B00040F40860086016480C30006840F00600F3
:1011C00013490C310860012012498860012111483F
:1011D000C16001614161881E0E49886101460D4868
:1011E000C161016241620C480A4988620A492031A2
:1011F0000848C16209490163091D4163084805495E
:10120000086008484860704700100240000801402C
:10121000000C0140101300200001214204812142F2
:1012200095100008710F00084FF0FF300349C860A7
:101230004FF088300860486070470000001001409F
:101240004FF0FF300349C8604FF03330086048600A
:10125000704700000010014030B505460024002111
:10126000084600F0D3F800F0F7F800BF03E0284686
:1012700000F0D8F8641CB4F5963FF8D330BD0000F8
:1012800000B51948806940F008001749886117487F
:10129000006820F44000154908600846006840F4E2
:1012A00040100860081D006840F6CC4188430F4993
:1012B000091D08600846006840F2333108430B49B5
:1012C000091D08600848806940F0100006498861DF
:1012D000FFF7B6FF05481030006840F4C4600349CA
:1012E0001031086000BD000000100240000C0140F9
:1012F00070B505460E461446A4F12000C4B204EBB6
:101300004400044901EB00123146284600F01AF867
:1013100070BD000010000020F0B507460C46002507
:1013200040F23F1609E0227831463846FFF7E0FFE9
:10133000A6F1100086B2641C6D1C207808B1142D33
:10134000F1D3F0BD2DE9F043064689461746002447
:101350000025A046B0464946404600F057F800BF79
:101360001EE000F079F800250FE037F814000121A5
:10137000A940084020B90C48008800F053F803E069
:101380000A48008800F04EF86D1C102DEDD308F1CE
:10139000010000F0FF084946404600F037F8641CA1
:1013A000182CDED3BDE8F083F6110020F4110020E4
:1013B00000B502464FF40070124908604010086002
:1013C0002020091F08601048C2602020091D086005
:1013D000091F0860C0000860FFF726FF4FF4806017
:1013E000084908600848806883B20815091F08602A
:1013F000FFF726FF4FF400700249091F08601846E6
:1014000000BD0000140C01400010014030B504463E
:101410000D462146202000F039F82946212000F011
:1014200035F830BD4FF40071094A11604910121FA0
:101430001160202111600749C8602021121D116030
:10144000121F1160C900116049001160704700004F
:10145000140C0140001001404FF40070094908606D
:10146000401008602020091F086022200649C8603B
:10147000202004490860091F0860C000086040007F
:1014800008607047140C0140001001404FF40072D6
:101490000C4B1A6052101A6020221B1F1A600A4A55
:1014A000D06020221B1D1A601B1F1A60D2001A6018
:1014B000054AD16020221B1D1A601B1F1A60D20032
:1014C0001A607047140C01400010014010B504462A
:1014D0000348006820430249086000F00FF810BD7F
:1014E000F011002010B5044603480068604002492E
:1014F000086000F003F810BDF0110020012007493A
:101500000860074801780748C06861F30F20054963
:10151000C86000200449C1F88801704788812242D0
:10152000F0110020001001400080224210B50F4849
:10153000806940F010000D4988614FF033300C494C
:1015400048600A48806940F02000084988610948DD
:10155000006820F44060074908600846006840F4CD
:1015600040700860FF20FFF7B1FF10BD001002407F
:10157000001001400014014000B501210020FFF7D8
:1015800085FF4FF47A70FFF733FC00210120FFF74D
:101590007DFF41F290711020FFF778FF4FF41C514E
:1015A0006020FFF773FF01216120FFF76FFF022129
:1015B0004620FFF76BFF48F210011320FFF766FF8C
:1015C00048F2FE011220FFF761FF4FF4A0610220F4
:1015D000FFF75CFF41F230010320FFF757FF40F2B5
:1015E00003313020FFF752FF40F203313120FFF783
:1015F0004DFF40F203313220FFF748FF4FF44071B6
:101600003320FFF743FF03213420FFF73FFF40F271
:1016100003313520FFF73AFF14213620FFF736FF5C
:1016200040F203313720FFF731FF40F20331382019
:10163000FFF72CFF40F203313920FFF727FF4FF46B
:1016400040713A20FFF722FF03213B20FFF71EFFE6
:1016500040F203313C20FFF719FF4FF4A0513D2029
:10166000FFF714FF4FF400719220FFF70FFF40F2D5
:1016700003319320FFF70AFF40F60D019020FFF79A
:1016800005FF41F218010320FFF700FF40F273113C
:101690000720FFF7FBFE00BD10B543F20801E32071
:1016A000FFF7F4FE1221E720FFF7F0FE41F23121AF
:1016B000EF20FFF7EBFE00210120FFF7E7FE4FF4DC
:1016C000E0610220FFF7E2FE41F230010320FFF764
:1016D000DDFE00210420FFF7D9FE40F2072108209B
:1016E000FFF7D4FE00210920FFF7D0FE00210A20D9
:1016F000FFF7CCFE00210C20FFF7C8FE00210D20D3
:10170000FFF7C4FE00210F20FFF7C0FE00211020CC
:10171000FFF7BCFE07211120FFF7B8FE00211220C1
:10172000FFF7B4FE00211320FFF7B0FEC82001F040
:101730007DF941F290611020FFF7A8FE40F22721C9
:101740001120FFF7A3FE322001F070F91D211220B5
:10175000FFF79CFE322001F069F94FF4006113207D
:10176000FFF794FE14212920FFF790FE0B212B2078
:10177000FFF78CFE322001F059F900212020FFF7FD
:1017800085FE00212120FFF781FE07213020FFF791
:101790007DFE40F207713120FFF778FE06213220EE
:1017A000FFF774FE40F204713520FFF76FFE41F63B
:1017B00004713620FFF76AFE04213720FFF766FE2A
:1017C00000213820FFF762FE40F206713920FFF752
:1017D0005DFE40F201713C20FFF758FE0F213D20D5
:1017E000FFF754FE00215020FFF750FEEF2151205B
:1017F000FFF74CFE00215220FFF748FE40F23F1158
:101800005320FFF743FE4FF41C516020FFF73EFECC
:1018100001216120FFF73AFE00216A20FFF736FE22
:1018200000218020FFF732FE00218120FFF72EFEED
:1018300000218220FFF72AFE00218320FFF726FEE9
:1018400000218420FFF722FE00218520FFF71EFEE5
:1018500010219020FFF71AFE00219220FFF716FEBC
:1018600003219320FFF712FE4FF488719520FFF7B4
:101870000DFE00219720FFF709FE00219820FFF7B9
:1018800005FE41F218010320FFF700FE40F273113C
:101890000720FFF7FBFD10BD2DE9F0411F48008830
:1018A00000F00100B8B31D48008820F001001B497A
:1018B00008801A4818300088441C184814300088E2
:1018C00044EA00441648844211D3002408460088A4
:1018D00040F0100008800020104914310880091DD4
:1018E00008800E48008820F010000C4908804FF452
:1018F0006160B4FBF0F5B4FBF0F100FB11443C2057
:10190000B4FBF0F6B4FBF0F100FB11473A46314668
:10191000284600F007F8BDE8F081000004280040E8
:10192000805101002DE9F0418EB004460D469046ED
:101930001548006810B10EB0BDE8F0812B46224674
:1019400012A104A8CDF8008000F0D2FB04A9A820C1
:10195000FFF7E2FC12488068A04213D110484068AB
:10196000A8420FD10E48006840450BD1FFF782F91D
:1019700006460C48006832460B468DE831010AA045
:1019800000F0A6FB00BFD6E70800002020543A2054
:10199000253032642D253032642D2530326400002C
:1019A000B412002000000020252E326C662B302E51
:1019B00025642B2530326425303264253032640AA8
:1019C000000000002DE9F04104460D461646C4EB28
:1019D00004108000C0EB00108000C5EB051100EB87
:1019E000810087192548C06940F0C0502349C8616B
:1019F0002348006840F48070214908601F48406A0D
:101A000040F001001D49486200BF1C48406A00F0D8
:101A100002000028F9D04FF4024018490862194822
:101A2000008840F01000174908800020091D088038
:101A300049F63F40091D0880380C124914310880CE
:101A4000091D0F8001200F49091F0880081D00880B
:101A500020F01000091D0880032001218140420967
:101A6000920002F1E022C2F8001100BF324629467E
:101A70002046FFF757FFBDE8F0810000001002404C
:101A8000007000400428004000B58BB00848006892
:101A900008B10BB000BD074807A1026801A800F01B
:101AA00027FB01A94820FFF737FC00BFF1E7000042
:101AB0000800002000000020206B3A20302E256412
:101AC0002020000000B58BB00848006808B108A0CD
:101AD00000E008A0024608A101A800F009FB01A946
:101AE0007820FFF719FC0BB000BD000004000020B7
:101AF0004E20000046460000204C45443A204F2529
:101B00007300000000B58BB00748006800900648DD
:101B1000436806A1826801A800F0EAFA01A96020E2
:101B2000FFF7FAFB0BB000BDB412002020202020EC
:101B300020253032642D253032642D25303264006A
:101B400010B5FFF79DFB0020FFF732FC0B49088022
:101B50000846008848F23021884202D1FFF70CFD88
:101B600001E0FFF799FD0020FFF722FC0349088000
:101B70004FF6FF70FFF770FB10BD0000F81100205A
:101B800010B500F001F810BD0CB5002001900090D8
:101B90003348006840F480303149086000BF304865
:101BA000006800F4003000900198401C01900098FB
:101BB00018B90198B0F5A06FF1D12948006800F478
:101BC000003010B10120009001E00020009000984A
:101BD000012843D12348006840F0100021490860E3
:101BE0000846006820F0030008600846006840F0DE
:101BF000020008601A484068194948600846406871
:101C000048600846406840F4806048600846406884
:101C100020F47C1048600846406840F4E8104860B2
:101C20000846006840F08070086000BF0C480068FB
:101C300000F000700028F9D00948406820F0030047
:101C4000074948600846406840F00200486000BF0D
:101C50000348406800F00C000828F9D10CBD0000D2
:101C600000100240002002400F48806940F004004C
:101C70000D4988610D48006820F00F000B4908608D
:101C80000846006840F00800086008480C3000680A
:101C900040F0010005490C31086000BF04480068AD
:101CA0000028FBD0704700000010024000080140EF
:101CB0000001214202480068401C01490860704749
:101CC000E011002010B5002100200022214B5B68AC
:101CD00003F00C0121B1042906D0082928D107E01E
:101CE0001D4B1E4C236027E01B4B1C4C236023E044
:101CF000184B5B6803F47010164B5B6803F480327A
:101D0000022303EB904022B9154B4343134C23604D
:101D10000DE0104B5B6803F4003323B1104B4343D9
:101D20000E4C236003E00C4B43430C4C236003E058
:101D3000094B0A4C236000BF00BF064B5B68C3F32E
:101D40000313084CE15C054B1B68CB40034C23603C
:101D500010BD00000010024000127A00FC110020AB
:101D600000093D000012002010B51348006840F043
:101D700001001149086008464068104908400E49B2
:101D80004860084600680E4908400B49086008464C
:101D9000006820F4802008600846406820F4FE00B7
:101DA00048604FF41F008860FFF7EAFE4FF00060C4
:101DB0000449086010BD0000001002400000FFF858
:101DC000FFFFF6FE08ED00E070B5FFF77BFF15485A
:101DD00000684FF47A72B0FBF2F1481EB0F1807FD8
:101DE00000D31BE0481E4FF0E022506150170F2235
:101DF000002807DA13071D0E0B4B00F00F04241FF9
:101E00001D5503E013071C0E084B1C5400BF002097
:101E10004FF0E02290610720106100BF00200449CC
:101E2000086070BDFC11002018ED00E000E400E047
:101E3000E011002010B50120FFF754FB10BD000099
:101E40002DE9F0438BB0FEF715FF04460D46174809
:101E50000068FEF70AFB0646154A164BFEF724FA01
:101E6000804622462B46FEF70DFB06D2124800683C
:101E700018B1124800F053F805E0104800F04CF893
:101E80000120FFF723FB0E48006810B10BB0BDE83E
:101E9000F08322462B460BA101A800F029F901A9E5
:101EA0001820FFF739FA00BFF0E70000000000201B
:101EB0001F85EB51B81ED53F0400002028120020DA
:101EC000080000202056313A20252E326C6656201C
:101ED0002000000010B50446E068C8B100BF0D48FE
:101EE0000068216862681144884211D300BF094824
:101EF0000068206020698047A068012803D9A06895
:101F0000401EA06004E0A068012801D10020E0602C
:101F100010BD0000E01100200021C16070470121C8
:101F2000C160704730B504460D4600BF04480068E4
:101F3000206062602561A3602046FFF7F0FF30BD9E
:101F4000E011002038B504466A460CA12046FEF791
:101F5000E9F8012810D10098401E09280CD209493F
:101F600000980860042211460648FEF70FFFFFF7AD
:101F70008BFD05A000F0ACF838BD00006B302E25BD
:101F800031640000000000206F6B0A0010B511489A
:101F90004069E8B1104800881049114A1268885415
:101FA00008460F490968405C0A280CD100210B4AF9
:101FB0000B480068401C11541046FFF7C3FF002077
:101FC0000749086004E006480068401C04490860AE
:101FD00010BD00000080084204440040C0120020F0
:101FE000EC11002000BF0349C9690029FBD0024958
:101FF00008807047008008420444004070B50546E0
:10200000FFF760FE2D48406800F4806048B12B481F
:102010004068C0F30220C01E2949096821FA00F473
:1020200001E0274804682548806940F00100234901
:1020300088612448406820F00800224948601F4811
:10204000806940F004001D4988611F48006820F441
:102050007F401D4908600846006840F40B40086056
:1020600019480C30006840F0080017490C3108602E
:102070001248C06940F400301049C8610846006940
:1020800040F4003008610846006920F4003008611F
:10209000B4FBF5F00D49088042F22C00091D0880C0
:1020A000262000F01F02012191404209920002F116
:1020B000E022C2F8001100BF70BD00000010024015
:1020C000FC110020000001400008014008440040CD
:1020D0000FB4054B10B503A9044A029800F0DEF8CE
:1020E00010BC5DF814FB0000752A000810120020D7
:1020F0000FB4084B10B504A902AA039800F0CEF85B
:10210000044602A9002000F060FC204610BC5DF8E7
:1021100014FB0000CB29000802E008C8121F08C108
:10212000002AFAD170477047002001E001C1121F58
:10213000002AFBD1704700002DE9FF5FDDE9022096
:10214000010DDDF838B0024318D044F61050A1F26A
:10215000FF3141430D140F98012820D0A5EB0B004F
:10216000401C5FEA000A4FF00004474EDFF81C9164
:10217000A046504616D5CAF1000728E00F98012462
:1021800043A2012808D0002100980F9BC0E900213C
:10219000C0E90243BDE8FF9F6FEA0B01F4E7CBF112
:1021A0000000DEE7074612E0F80707D02246334674
:1021B00040464946FEF778F880468946224633462F
:1021C00010461946FEF770F804460E467F10002FA1
:1021D000EAD1DDE90201BAF1000F42464B4602DACC
:1021E000FEF762F801E0FEF7D1F804460E46002241
:1021F000284BFEF705FB03D84FF0FF30014607E000
:102200000022254B20463146FEF73BFAFEF7E0FA66
:10221000102409E0002C0ADB0A220023FEF760F9F3
:10222000019B30321A55641E50EA0102F2D1641C3F
:10223000019AC4F1110314440F9A012A03D0012218
:1022400008430DD10AE0084304D000204FF0110BE1
:102250000F9080E7A3EB0B056D1E0DE05B4504DDE1
:102260004FF0000205F1010504E003DA4FF000022F
:10227000A5F10105002AECD000980F99C0E90231C0
:10228000C0E9004586E70000000024400000F03F60
:10229000300000000000F0430000E03F2DE9FF4F58
:1022A00095B09B468946064600250FE2252877D142
:1022B00000242746F84A0121059400E0044316F85B
:1022C000013F203B01FA03F01042F7D130782A2871
:1022D00011D06FF02F033078A0F13002092A16D800
:1022E000059A44F0020402EB820203EB420210441E
:1022F000761C0590EFE759F8042B0592002A03DAC3
:10230000504244F40054059044F00204761C3078A6
:102310002E2816D116F8010F44F004042A280DD0F7
:102320006FF02F023078A0F13003092B09D807EBAA
:10233000870302EB4303C718761CF3E759F8047BC5
:10234000761C30786C280FD006DC4C2817D0682813
:102350000DD06A2814D104E0742810D07A280FD147
:102360000DE044F400140AE044F4801401E044F465
:1023700040147278824202D104F58014761C761CD7
:10238000307866280BD013DC582877D009DC002879
:1023900075D04528F6D04628F4D047281AD19DE1BB
:1023A00018E0632835D0642879D0652812D195E1EA
:1023B000702873D008DC6728F1D069286FD06E28A8
:1023C0000DD06F2806D1B5E073282CD0752875D0B4
:1023D000782874D05A46179990476D1C75E1C4F35C
:1023E0000250022809D003280DD0D9F80010042883
:1023F0000DD00D6009F1040967E1D9F80010EA1762
:10240000C1E90052F6E7D9F800100D80F2E70D702F
:10241000F0E719F8041B8DF8001000208DF801007A
:10242000EA46012003E059F804AB4FF0FF306107A2
:102430004FF0000102D40DE008F101018846B942D5
:102440000FDA8045F8DB1AF808100029F4D108E00B
:1024500008F1010188468142FADB1AF808100029C8
:10246000F6D105985B46A0EB080721463846179A37
:1024700000F094FA284400EB080507E04DE029E15C
:102480000DE01AF8010B5A4617999047B8F1010868
:10249000F7D25B4621463846179A13E142E00A22FA
:1024A0000092C4F302524FF0000A022A08D059F8F1
:1024B00004CB032A4FEAEC710AD00DE029E02AE0B0
:1024C00009F1070121F00702F2E802C1914609E093
:1024D0000FFA8CFC4FEAEC71042A03D14FFA8CFC02
:1024E0004FEAEC71002907DA0A460021DCF1000C02
:1024F00061EB02012D2202E0220504D52B228DF88A
:102500000420012203E0E20701D02022F7E79046F1
:1025100059E00A2102E010220DE010214FF0000ADC
:1025200000910BE010224FF0000A44F00404082749
:10253000009203E008224FF0000A0092C4F3025216
:10254000022A05D059F804CB0021032A08D009E05B
:1025500009F1070121F00702F2E802C1914605E006
:102560001FFA8CFC042A01D10CF0FF0C4FF000087C
:10257000220728D5702806D0009B83F0100353EA69
:102580000A0305D00EE040228DF80420012208E065
:102590005CEA010206D030228DF804208DF8050097
:1025A00002229046009B83F0080353EA0A030AD1F3
:1025B0005CEA010201D1620705D530228DF80420C2
:1025C0004FF001087F1E582804D034A003900EA8B5
:1025D00002900DE036A0F9E753466046009AFDF7F9
:1025E0007FFF84460398825C0298401E029002702E
:1025F0005CEA0100F0D1029806A9081A00F1200A4D
:10260000600702D524F4803400E00127574502DD3D
:10261000A7EB0A0000E0002000EB0A0100900598FB
:102620004144401A0590E00306D45B462146179AC0
:10263000059800F0B3F90544002706E001A85A46C2
:10264000C05D179990476D1C7F1C4745F6DBE00382
:102650000CD55B462146179A059800F09FF9054472
:1026600004E030205A46179990476D1C0099481E87
:1026700000900029F5DC08E0029802995A4600789B
:10268000491C0291179990476D1CBAF10001AAF1FB
:10269000010AF1DC65E10000092801003031323324
:1026A000343536373839616263646566000000008E
:1026B0003031323334353637383941424344454678
:1026C0000000000000F058F90544761C307800281E
:1026D0007FF4ECAD19B02846BDE8F08F620700D456
:1026E000062709F1070222F0070CFCE80223E14665
:1026F00003F000485FEA080C02D00FF2702C0DE0E6
:102700005FEA045C02D50FF2682C07E05FEAC47C44
:1027100002D00FF2602C01E0AFF2700C4FF0FF38E6
:1027200023F00043CDF850C065280CD006DC4528C6
:1027300009D046281DD047283DD13DE0662818D055
:1027400067287ED138E00021112F01DB112000E045
:10275000781CCDE9000106A90EA8FFF7EDFCDDE924
:102760000F010E9A03910021009207F1010A0491D2
:102770004DE04FF000400097CDE9011006A90EA8EA
:10278000FFF7DAFCDDE90F0203920E9B119900229C
:10279000DDF80CA00093049211B9791C00EB010A3A
:1027A000B7EB0A0004D4C0F1FF3007F1010A04902E
:1027B000AAEB0700019044E0012F00DA0127002175
:1027C000112F01DD112000E03846CDE9000106A9F6
:1027D0000EA8FFF7B1FCDDE90F010E9A039100216D
:1027E00004910092BA4621070CD40399514500DAAE
:1027F0008A46BAF1010F05DD009AAAF10101515C88
:10280000302908D0B84202DA10F1040F06DA0121AB
:10281000CDE9011015E0AAF10101E9E7002805DC86
:10282000049901440491AAEB000102E0411C5145C6
:1028300000DD8A460499401A401C01904FF0004088
:102840000290200704D40198504501DBCDF80480A4
:1028500000208DF84F0002980DF14F07B0F1004FA6
:1028600025D02B200E9002984FF0020800280CDA99
:10287000404202902D200E9007E00A210298FDF7B9
:1028800019FE3031029007F8011DB8F10001A8F1DE
:102890000108F2DC02980028EFD1791E0E9808702A
:1028A000307800F0200040F0450007F8020D12A833
:1028B000C01B00F107081498007800B1012000EB5C
:1028C0000A01019801EBE07105984144401A401E4D
:1028D0000590E00306D45B462146179A059800F060
:1028E0005DF805441498007818B15A461799904736
:1028F0006D1CE00324D55B462146179A059800F02D
:102900004DF805441CE00498002807DBDDE90301CD
:10291000884203DD0098405C179901E01799302048
:102920005A469047049805F10105401C049001980F
:10293000401E019004D12E205A46179990476D1CD5
:10294000BAF10001AAF1010ADDDC05E017F8010B7C
:102950005A46179990476D1CB8F10001A8F101087B
:10296000F4DC5B462146179A0598ABE62D00000083
:102970002B000000200000002DE9F0410446002556
:102980001E461746880404D405E039462020B04787
:102990006D1C641EF9D52846BDE8F0812DE9F04193
:1029A000044600251E469046C80301D5302700E0A6
:1029B0002027880404D505E041463846B0476D1C01
:1029C000641EF9D52846BDE8F0810A68531C0B60E7
:1029D0001070704710B5FFF775F90F4800684FF495
:1029E0007A71B0FBF1F00D4908600B4800684FF4B4
:1029F0007A71B0FBF1F0B0FBF1F0094908600948C9
:102A0000006840F08070074908600748006840F09F
:102A100001000549086010BDFC110020E4110020F0
:102A2000E8110020FCED00E0001000E00022064B61
:102A30005A60064A126800FB02F100BF024A52685F
:102A40008A42FBD370470000001000E0E411002030
:102A50000022064B5A60064A126800FB02F100BFD2
:102A6000024A52688A42FBD370470000001000E01F
:102A7000E811002000B502460B46D0B2FFF7B2FACB
:102A8000104600BDFFF7F0F8FFF7A4FFFFF79CF931
:102A90004FF41650FFF7B2FAFEF754FBFEF746FD6F
:102AA000FEF716F9FFF74CF8FEF78CF937223B21B9
:102AB0001720FEF787FF002204212448FEF740F983
:102AC000224800682249884215D008461F490860FC
:102AD000002204211D48FEF759F90A20FFF7A6FF3E
:102AE00001201A490860042211461848FEF74EF9E1
:102AF0000A20FFF79BFF042211461448FEF720F935
:102B0000FEF7C2FFFEF7DEFF002302221149124842
:102B1000FFF708FA0023C82210490F481430FFF7C6
:102B200001FA002364220E490B482830FFF7FAF916
:102B30000BE00948FFF7CEF907481430FFF7CAF950
:102B400005482830FFF7C6F930BFF2E70000002043
:102B5000AA5555AAA110000814120020351E00081D
:102B6000411E0008D02B0008C02B0008B02B000825
:102B7000DDDDDDDDDCBBBBDDDDDDDDDDDDDDDDDDCA
:102B8000988888888888888877777777778888880A
:102B900085555556666666666666666666688888A2
:102BA0008333333222222222222222222228888D9B
:102BB0002020202020202A2020202020200000006B
:102BC0002020202020202020202A2020200000005B
:102BD0002020202020202020202020202A0000004B
:102BE000002C00080000002014120000140C000843
:102BF000903200081412002034110000282100082F
:102C0000120001033A0100010316800102611EE176
:102C10003292CC02012A6A23600C02200F30063067
:102C200006FE1FFE1F3006380718030A2007180388
:102C300018038C01023172201700E003F80F9C0E7C
:102C40008C1C8C188C009800F801E007800E800E18
:102C5000100B189C18B80CF00FE0038026A15A1036
:102C6000090E181B0C110C11060210110311039B05
:102C7000018E01C038C06C604460443002600718A7
:102C800044186C0C38BE1005E001F0037A101406ED
:102C900018063003F001F000F8009C310E33061ED8
:102CA000061C02E0063FFC73F021B8920C020121E1
:102CB000E7100B0200038001C000C0006002D230A8
:102CC000022114211C155E12032A1516322012351A
:102CD00070120302D20602111425A2214ED62088BA
:102CE00021481008D806F807E00130D2052AEAC4C6
:102CF00005FC3FFC3FE8092C301973031B01806C75
:102D0000080534E007E00790253AF57F750C155C5F
:102D1000351045624564D17AE00A03F007380E1891
:102D20000C0C1802D409180C380EF007E003B0217F
:102D30004C0C071901F0019801880803A16043F8C1
:102D40000F5E220002219C35F025ECD0071800FC14
:102D50001FFC1F90100701F807180E0C0121C8185E
:102D600005C003C00751113C41920210F8904C0B72
:102D70000C000E000F000F800DC03003116B270CEC
:102D80000CB209148513F80F9031893009EC03FC5B
:102D9000071C0E001C98115E0005101C0C180E601C
:102DA0002009C007F00F381C1818325409CC03EC66
:102DB0000F3C0E1C1C2006121C2031D24582357C93
:102DC00016C07A3AE0C85A70DE0514802153840791
:102DD0003806F007F0078CE005380CF80F6041303A
:102DE000521C2430091C1C381EF81BE019D1130C8E
:102DF0001CC00B1BF0018A012114011F30091ACEDF
:102E00001C0510001C80720416F8DC1AF85C178090
:102E10000F600A1810F8C3F81F080D1E14051807D4
:102E200008003800F00114121F61161F9C130138AE
:102E300014091770796E6D2603FD2E033D7C034047
:102E40000C18180420C229224A11440902EC0C2251
:102E50001113E20C024004201818980315D4200422
:102E600003C00602396E2218022C07F83FF83F1CF7
:102E700070AF052119D9106C0503FC0F0C5E03100F
:102E8000040CFC070E1A18A541021E180003FA07CD
:102E900070BC0A1F38381C300C700660DD04E00876
:102EA000600C701C30F01F903C08FE03FE0F060EF5
:102EB00006A105B1022DB305E8050EFE0FFEA01D0B
:102EC000CC048DA20529AEADB0053D3803C5A211D5
:102ED000DC4DBB032D27038005F81FF81F0E4DD3D3
:102EE00003DDCA043C0C0FF83F3C780E6006E00797
:102EF000C0810411A11DC5031533DC090EC03CF0CF
:102F0000F83FE00FBF03A23002319EB1120F260C32
:102F10003080070D15A005021406022531DC0638A5
:102F200007F003E0B004353A10140C0606060386D9
:102F300001C60066007600DE008E01060312360C24
:102F400064DD4105021B18022530CD210320050E4A
:102F5000E01EF0024336D8022366CC0252C601E4DA
:102F60000586C386C32010041C303C02126C02127A
:102F7000CC0210058C310C3302123602123C02E6F0
:102F800038201C05E007F81F9904193EA303C0026E
:102F9000F80806600E701C38F8401BFC0F02CA3897
:102FA000920E190CC407916082E05E140907E006D6
:102FB000630E3F1C3CE0CEF79106198258041F06B1
:102FC000389C1E38C00876074C49B20E1060300697
:102FD0005DDE041D9B051BF80330331E00401C05FD
:102FE0000E301C1C1005ED000308042A7FFE7F1024
:102FF000E95EA97E0710181820430360BC6D140712
:103000002D16072D9409140570076003631DE00554
:10301000E13023C3610283663302236C1B02CC09B7
:103020002C1A3C1E380E380E31051C090FE00C70AE
:10303000183030183F043C040EC0075E041405032A
:10304000E00670F71D8107D006300E6007E0602DA6
:1030500079044C08301C383818300C65030D1C807E
:10306000075C05FC7FFC7F6D07DD7C072D270825AD
:103070003EED10082FE003AE06011E0221282DA60A
:103080000A6DA6094DA8091D64096D0E0B7E03A0EB
:1030900009F1600221000261601D82071D440725BD
:1030A0006C3F6003D70429190D39C00B12FF010DC5
:1030B00039AE0A9D4A081805F003F807AA2C070C38
:1030C000000FF00FF8B1081F0C1C5C080F16F01869
:1030D00020041ED8A80B1E38370881012DE0070FE9
:1030E00017D803DA091D9A096F300E39092DA30884
:1030F0001E309009EEC00009711F2805C01BF01F8B
:10310000368160000719301CF01FC01B601E0F8342
:10311000066E18D4051952EC051CF00FC0F00644D9
:10312000040FC00FDA2D9C0855E4B1020D17D40A24
:103130001E0DFA093DCA0961011D600924050FE051
:103140000D002A6E06AA0895204F07F86A09D101DA
:103150000D16F00A0215C002012E3041DEEC04F813
:103160000078BE0C1C050C0C060C6A0D100DCC0072
:103170006C00FC009C018C030C03120E100C560C0E
:10318000011C020D169009E0097C3CFF7EC7E38319
:10319000C1020D16EA0B062398200510E099101DB8
:1031A0000E0E0A17C0700916A00D16EA070917704F
:1031B0000D151B081EB06E07FE70E20D0E183014C0
:1031C0000D1E037A0E1D1A0B1DF2093D060C0D157E
:1031D000900C1D020F0919A00F170780EA0D0910A6
:1031E0006A1238C01D4C0B0D15DB0A4DFE053E184A
:1031F000920F1DB7060E140300068DF80F3008C19C
:1032000041C141C3616301323601321C010D16F028
:103210000F3E1CF70952605A1D5E061D75061E38CA
:10322000E10B0117C01D36061D38062E1828102F79
:10323000E00C940A2D3E064DF00D1DA20D1D700CE4
:103240000D159A0C0D1B800D8D300B8D320E2DE25D
:1032500005BA40D63D900F0D259009CD22119E60F4
:1032600024069DC60FB3030048FEC0A80E5D74057A
:103270000C063010F81F080FF40539817C04A24AAF
:1032800004C50E2C08020304060708090B120000EF
:04000005080000ED02
:00000001FF
