:020000040800F2
:10000000D804002001010008090100080B010008C4
:100010000D0100080F010008110100080000000098
:1000200000000000000000000000000013010008B4
:100030001501000800000000170100083102000847
:100040001B0100081B0100081B0100081B01000820
:100050001B0100081B0100081B0100081B01000810
:100060001B0100081B0100081B0100081B01000800
:100070001B0100081B0100081B0100081B010008F0
:100080001B0100081B0100081B0100081B010008E0
:100090001B0100081B0100081B0100081B010008D0
:1000A0001B0100081B0100081B0100081B010008C0
:1000B0001B0100081B0100081B0100081B010008B0
:1000C0001B0100081B0100081B0100081B010008A0
:1000D0001B0100081B010008410400081B01000867
:1000E0001B0100081B0100081B010008DFF80CD0F1
:1000F00000F018F80048004701060008D804002066
:100100000648804706480047FEE7FEE7FEE7FEE7B1
:10011000FEE7FEE7FEE7FEE7FEE7FEE7E502000892
:10012000ED000008064C074D06E0E06840F00103D2
:1001300094E8070098471034AC42F6D3FFF7DAFF93
:10014000340600085406000810B500F001F810BD90
:100150000CB50020019000903348006840F48030D6
:100160003149086000BF3048006800F4003000905A
:100170000198401C0190009818B90198B0F5A06F43
:10018000F1D12948006800F4003010B1012000903E
:1001900001E0002000900098012843D12348006826
:1001A00040F01000214908600846006820F0030074
:1001B00008600846006840F0020008601A4840687D
:1001C000194948600846406848600846406840F45D
:1001D000806048600846406820F47C10486008460B
:1001E000406840F4E81048600846006840F08070BD
:1001F000086000BF0C48006800F000700028F9D0CB
:100200000948406820F003000749486008464068F4
:1002100040F00200486000BF0348406800F00C0056
:100220000828F9D10CBD0000001002400020024057
:1002300002480068401C0149086070470000002027
:1002400010B5002100200022214B5B6803F00C0157
:1002500021B1042906D0082928D107E01D4B1E4CE6
:10026000236027E01B4B1C4C236023E0184B5B688A
:1002700003F47010164B5B6803F48032022303EB27
:10028000904022B9154B4343134C23600DE0104BB3
:100290005B6803F4003323B1104B43430E4C2360DF
:1002A00003E00C4B43430C4C236003E0094B0A4C26
:1002B000236000BF00BF064B5B68C3F30313084C09
:1002C000E15C054B1B68CB40034C236010BD000074
:1002D0000010024000127A000C00002000093D00CE
:1002E0001000002010B51348006840F001001149CB
:1002F000086008464068104908400E4948600846B2
:1003000000680E4908400B4908600846006820F460
:10031000802008600846406820F4FE0048604FF4E2
:100320001F008860FFF710FF4FF00060044908606D
:1003300010BD0000001002400000FFF8FFFFF6FEB5
:1003400008ED00E070B5FFF77BFF154800684FF43B
:100350007A72B0FBF2F1481EB0F1807F00D31BE04F
:10036000481E4FF0E022506150170F22002807DA94
:1003700013071D0E0B4B00F00F04241F1D5503E047
:1003800013071C0E084B1C5400BF00204FF0E02246
:1003900090610720106100BF00200449086070BD13
:1003A0000C00002018ED00E000E400E00000002058
:1003B00010B502A000F0C8F810BD000048656C6CD4
:1003C0006F3F20576F726C642120786B77792E0D08
:1003D0000A00000010B50446E068C8B100BF0D482F
:1003E0000068216862681144884211D300BF09483F
:1003F0000068206020698047A068012803D9A068B0
:10040000401EA06004E0A068012801D10020E06047
:1004100010BD0000000000200121C16070470000F5
:1004200030B504460D4600BF044800682060626095
:100430002561A3602046FFF7EFFF30BD00000020DC
:1004400000B50448406920B103490988C8B200F0EA
:1004500005F800BD008008420444004000BF034985
:10046000C9690029FBD00249088070470080084212
:100470000444004070B50546FFF7E2FE2D48406891
:1004800000F4806048B12B484068C0F30220C01ED1
:100490002949096821FA00F401E027480468254841
:1004A000806940F00100234988612448406820F0B9
:1004B0000800224948601F48806940F004001D4937
:1004C00088611F48006820F47F401D490860084685
:1004D000006840F49640086019480C30006840F00D
:1004E000080017490C3108601248C06940F4003018
:1004F0001049C8610846006940F4003008610846A8
:10050000006920F400300861B4FBF5F00D49088063
:1005100042F22C00091D0880262000F01F02012154
:1005200091404209920002F1E022C2F8001100BF9E
:1005300070BD0000001002400C00002000000140CF
:100540000008014008440040014A024900F013B885
:10055000F10500082000002002E008C8121F08C1B1
:10056000002AFAD170477047002001E001C1121F34
:10057000002AFBD170472DE9F04116460F4604468C
:10058000002503E03946B047641C6D1C2078002824
:10059000F8D12846BDE8F08110B5FFF751FE0F48AD
:1005A00000684FF47A71B0FBF1F00D4908600B4818
:1005B00000684FF47A71B0FBF1F0B0FBF1F009493B
:1005C00008600948006840F08070074908600748E3
:1005D000006840F001000549086010BD0C000020D3
:1005E0000400002008000020FCED00E0001000E006
:1005F00000B502460B46D0B2FFF730FF104600BDF3
:10060000FFF7CAFFFFF79EFE4FF41640FFF732FFD9
:1006100000234FF4FA7205490548FFF701FF03E094
:100620000348FFF7D7FE30BFFAE70000B103000828
:1006300024000020540600080000002024000000D0
:10064000580500087806000824000020B4040000C3
:100650006805000800000000000000000000000025
:1006600000A24A0400000000000000000102030490
:08067000060708090000000064
:04000005080000ED02
:00000001FF
