:020000040800F2
:100000000011002001010008090100080B0100088F
:100010000D0100080F010008110100080000000098
:1000200000000000000000000000000013010008B4
:10003000150100080000000017010008290500084C
:100040001B0100081B0100081B0100081B01000820
:100050001B0100081B0100081B0100081B01000810
:100060001B0100081B0100081B0100081B01000800
:100070001B0100081B0100081B0100081B010008F0
:100080001B0100081B0100081B0100081B010008E0
:100090001B0100081B0100081B0100081B010008D0
:1000A0001B0100081B0100081B0100081B010008C0
:1000B0001B0100081B0100081B0100081B010008B0
:1000C0001B0100081B0100081B0100081B010008A0
:1000D0001B0100081B0100084D0700081B01000858
:1000E0001B0100081B0100081B010008DFF80CD0F1
:1000F00000F02EF800480047510A000800110020C7
:100100000648804706480047FEE7FEE7FEE7FEE7B1
:10011000FEE7FEE7FEE7FEE7FEE7FEE7DD05000897
:10012000ED00000830B50B460146002020220124D6
:1001300009E021FA02F59D4205D303FA02F5491BB5
:1001400004FA02F52844151EA2F10102F1DC30BDCB
:10015000064C074D06E0E06840F0010394E8070014
:1001600098471034AC42F6D3FFF7C4FF480B0008A1
:10017000680B00080648006828B105480068401E62
:100180000349086002E0012002490860704700004E
:100190000C0000209081214208B9012100E00021DB
:1001A000024A1160024908607047000090812142B4
:1001B0000C00002000B51348806940F0010011498F
:1001C00088611148406820F0E0600F4948600846A7
:1001D000406840F0807048600A48806940F008003C
:1001E000084988610948006820F400200749086030
:1001F0000846006840F4E02008600020FFF7CCFFCC
:1002000000BD00000010024000000140000C014051
:1002100010B504463220FFF7BFFF611C01A000F0BB
:1002200019FB10BD20746865204B4559206F66206E
:10023000274225642720446F776E21210D0A000094
:1002400010B50446611C02A000F004FB10BD0000C4
:1002500020746865204B4559206F6620274225642D
:100260002720555021210D0A0000000010B5002460
:1002700007E0264850F824004100244840F82410A4
:10028000641C042CF5D300240CE0204850F8240012
:100290001E49103151F82410096808431B4941F8E0
:1002A0002400641C042CF0D300242CE0174850F8E0
:1002B0002400B0F1FF3F10D11448103850F824004A
:1002C000012800D11EE001211048103840F8241008
:1002D000083801682046884714E00C4850F824008C
:1002E00078B90A48103850F8240000B90AE0002113
:1002F0000648103840F824100838416820468847DE
:1003000000E000BF641C042CD0D310BDE00000202E
:100310003048806940F00C002E4988612E48006802
:1003200020F00F002C4908600846006840F00800E3
:10033000086029480C30006840F0010026490C3163
:1003400008602548001D006820F00F002249091DA3
:1003500008600846006840F0080008601E480C303D
:10036000006840F480701C490C3108601B4800682C
:1003700020F47F60194908600846006840F408606E
:10038000086016480C30006840F0060013490C3134
:10039000086001201249886001211148C160016193
:1003A0004161881E0E49886101460D48C1610162A4
:1003B00041620C480A4988620A4920310848C162F2
:1003C00009490163091D4163084805490860084857
:1003D000486070470010024000080140000C0140D6
:1003E000C80000200001214204812142410200088E
:1003F0001102000810B500F001F810BD0CB5002086
:10040000019000903348006840F480303149086022
:1004100000BF3048006800F4003000900198401C94
:100420000190009818B90198B0F5A06FF1D1294852
:10043000006800F4003010B10120009001E00020BD
:1004400000900098012843D12348006840F0100034
:10045000214908600846006820F00300086008464B
:10046000006840F0020008601A4840681949486076
:100470000846406848600846406840F4806048602C
:100480000846406820F47C1048600846406840F404
:10049000E81048600846006840F08070086000BFBF
:1004A0000C48006800F000700028F9D00948406846
:1004B00020F00300074948600846406840F0020009
:1004C000486000BF0348406800F00C000828F9D1DC
:1004D0000CBD000000100240002002400F4880695F
:1004E00040F004000D4988610D48006820F00F00BD
:1004F0000B4908600846006840F00800086008489A
:100500000C30006840F0010005490C31086000BF64
:10051000044800680028FBD070470000001002402B
:10052000000801400001214202480068401C0149C6
:10053000086070470000002010B500210020002254
:10054000214B5B6803F00C0121B1042906D0082976
:1005500028D107E01D4B1E4C236027E01B4B1C4C91
:10056000236023E0184B5B6803F47010164B5B6844
:1005700003F48032022303EB904022B9154B43432E
:10058000134C23600DE0104B5B6803F4003323B180
:10059000104B43430E4C236003E00C4B43430C4C85
:1005A000236003E0094B0A4C236000BF00BF064BE9
:1005B0005B68C3F30313084CE15C054B1B68CB403D
:1005C000034C236010BD00000010024000127A00AE
:1005D0001000002000093D001400002010B5134851
:1005E000006840F001001149086008464068104961
:1005F00008400E494860084600680E4908400B490B
:1006000008600846006820F48020086008464068BA
:1006100020F4FE0048604FF41F008860FFF7EAFEF8
:100620004FF000600449086010BD00000010024057
:100630000000FFF8FFFFF6FE08ED00E070B5FFF7E1
:100640007BFF154800684FF47A72B0FBF2F1481E48
:10065000B0F1807F00D31BE0481E4FF0E0225061D4
:1006600050170F22002807DA13071D0E0B4B00F05E
:100670000F04241F1D5503E013071C0E084B1C54C8
:1006800000BF00204FF0E02290610720106100BF02
:1006900000200449086070BD1000002018ED00E043
:1006A00000E400E00000002000BF00BF00BF00BF6A
:1006B0007047000010B503A000F0CCF89620FFF7BB
:1006C0006BFD10BD2300000010B50446E068C8B102
:1006D00000BF0D480068216862681144884211D348
:1006E00000BF09480068206020698047A068012891
:1006F00003D9A068401EA06004E0A068012801D1D1
:100700000020E06010BD0000000000200121C16059
:100710007047000010B5044600BF03480068206021
:100720002069804710BD00000000002030B504465D
:100730000D4600BF04480068206062602561A36028
:100740002046FFF7E3FF30BD0000002000B504485D
:10075000406920B103490988C8B200F005F800BD1E
:10076000008008420444004000BF0349C9690029D1
:10077000FBD00249088070470080084204440040D2
:1007800070B50546FFF7D8FE2D48406800F480603C
:1007900048B12B484068C0F30220C01E29490968AF
:1007A00021FA00F401E0274804682548806940F0F8
:1007B0000100234988612448406820F0080022494C
:1007C00048601F48806940F004001D4988611F4847
:1007D000006820F47F401D4908600846006840F426
:1007E0000B40086019480C30006840F008001749B9
:1007F0000C3108601248C06940F400301049C861EB
:100800000846006940F4003008610846006920F499
:1008100000300861B4FBF5F00D49088042F22C006D
:10082000091D0880262000F01F0201219140420985
:10083000920002F1E022C2F8001100BF70BD00007A
:10084000001002401000002000000140000801409C
:10085000084400400FB4054B10B503A9044A0298A0
:1008600000F018F810BC5DF814FB0000410A000805
:100870002400002002E008C8121F08C1002AFAD193
:1008800070477047002001E001C1121F002AFBD110
:10089000704700002DE9FF4F89B09B4604460025B4
:1008A00006E025280BD05A460B999047641C6D1C16
:1008B00020780028F5D10DB02846BDE8F08F00273C
:1008C000B8460122474900E0074314F8013F203BA6
:1008D00002FA03F00842F7D120782E2819D114F833
:1008E000010F47F004072A280ED06FF02F0220785E
:1008F000A0F1300109290CD808EB880102EB410175
:1009000000EB0108641CF2E70A98641C50F8048BA1
:100910000A9020780028CED0642808D0692806D014
:1009200075281ED05A460B9990476D1C58E00A99BD
:100930004FF00A0901C90A91002802DA40422D212C
:1009400002E0390504D52B218DF82010012103E0A8
:10095000F90704D02021F7E78A4608AE0DE0002110
:10096000FAE70A994FF00A0901C90A91F7E74946DF
:10097000FFF7D8FB303106F8011D0028F7D1ADEBA9
:10098000060000F12009780701D44FF00108C8459E
:1009900002DDA8EB090000E000208046002706E009
:1009A00008A85A46C05D0B9990476D1C7F1C57459F
:1009B000F6DB04E030205A460B9990476D1CB8F1E5
:1009C0000001A8F10108F5DC05E016F8010B5A4614
:1009D0000B9990476D1CB9F10001A9F10109F4DCF4
:1009E000641C65E70928010010B5FFF7A5FD0F4855
:1009F00000684FF47A71B0FBF1F00D4908600B48C4
:100A000000684FF47A71B0FBF1F0B0FBF1F00949E6
:100A100008600948006840F080700749086007488E
:100A2000006840F001000549086010BD100000207A
:100A30000400002008000020FCED00E0001000E0B1
:100A400000B502460B46D0B2FFF78EFE104600BD41
:100A5000FFF744FDFFF7C8FFFFF7F0FD4FF4164026
:100A6000FFF78EFEFFF754FCFFF7A4FB00230222E2
:100A700030493148FFF75AFE002301222F492E4802
:100A80001430FFF753FE00234FF47A722C492A48A2
:100A90002830FFF74BFE00234FF47A72284926488E
:100AA0003C30FFF743FE00234FF47A72244922487A
:100AB0005030FFF73BFE00234FF47A7220491E4866
:100AC0006430FFF733FE00234FF47A721C491A4852
:100AD0007830FFF72BFE002340F6B832194916484C
:100AE0008C30FFF723FE14488C30FFF713FE1FE015
:100AF0001148FFF7E9FD10481430FFF7E5FD0E48F7
:100B00002830FFF7E1FD0C483C30FFF7DDFD0A48D7
:100B10005030FFF7D9FD08486430FFF7D5FD06488F
:100B20007830FFF7D1FD04488C30FFF7CDFD30BFA2
:100B3000DEE700006D0200082800002075010008B3
:100B4000A9060008B5060008680B00080000002090
:100B50002800000074080008900B000828000020FE
:100B6000D810000084080008000000000000000009
:100B7000000000000000000000A24A040000000085
:100B8000000000000102030406070809000000003D
:04000005080000ED02
:00000001FF
