:020000040800F2
:100000001023002001010008090100080B0100086D
:100010000D0100080F010008110100080000000098
:1000200000000000000000000000000013010008B4
:100030001501000800000000170100082117000842
:100040001B0100081B0100081B01000829140008FF
:100050001B0100081B0100081B0100081B01000810
:100060001B0100081B0100081B0100081B01000800
:100070001B0100081B0100081B0100081B010008F0
:100080001B0100081B0100081B0100081B010008E0
:100090001B0100081B0100081B0100081B010008D0
:1000A0001B0100081B0100081B0100081B010008C0
:1000B0001B0100081B0100081B0100081B010008B0
:1000C0001B0100081B0100081B0100081B010008A0
:1000D0001B0100081B010008ED1A00081B010008A5
:1000E0001B0100081B0100081B010008DFF80CD0F1
:1000F00000F082FA00480047A925000810230020DC
:100100000648804706480047FEE7FEE7FEE7FEE7B1
:10011000FEE7FEE7FEE7FEE7FEE7FEE7D51700088D
:10012000ED0000082DE9F04D81EA030404F0004BD6
:1001300021F0004514464FF0000A23F0004150EA38
:10014000050220D054EA01021DD0C5F30A57024629
:10015000C5F31303C1F31300C1F30A5640F480152D
:1001600043F48013A7EB0608101BD64608F2FD38AF
:1001700073EB050002D308F1010801E092185B411E
:10018000B8F1000F03DA00200146BDE8F08D002031
:100190004FF48011064684460EE0171B73EB0507EB
:1001A00005D3121B63EB050306434CEA010C490817
:1001B0004FEA300092185B4150EA0107EDD152EA54
:1001C000030012D082EA040083EA0501084305D047
:1001D000101BAB4106D20122002306E000224FF0A3
:1001E000004302E06FF0010253101AEB06004CEBE3
:1001F000085110EB0A0041EB0B01BDE8F04D00F097
:1002000054B80EB540F2334102910021CDE90011FE
:100210000A460B4600F058F803B000BD30B50B4657
:10022000014600202022012409E021FA02F59D4226
:1002300005D303FA02F5491B04FA02F52844151EFA
:10024000A2F10102F1DC30BD2DE9F05F054600208E
:1002500092469B4688460646814640241BE0284637
:1002600041464746224600F0E8F953465A46C01A2E
:10027000914110D311461846224600F0CFF92D1AAD
:1002800067EB01084F4622460120002100F0C6F925
:1002900017EB00094E41201EA4F10104DFDC4846A3
:1002A00031462A464346BDE8F09F10B5141E73F14F
:1002B000000408DA401C41F1000192185B411A4326
:1002C00001D120F0010010BD2DE9F04D92469B4672
:1002D00011B1B1FA81F202E0B0FA80F22032904618
:1002E00000F09CF904460F4640EA0A0041EA0B017F
:1002F00053465A46084313D0114653EA010019D019
:10030000C8F14002504600F098F905460E465046A6
:100310005946424600F082F9084305D0012004E026
:1003200020463946BDE8F08D0020054346EAE076D8
:100330002C4337430A986305E40AA0EB0800002227
:10034000FD0A44EA47540A3002D500200146E9E795
:10035000010510196941DDE9084500196941BDE849
:10036000F04DA2E72DE9FE4F804681EA0300C00F61
:100370000C46009021F0004123F00045B8EB02004C
:10038000A94105D24046214690461C460B460246EE
:1003900023F00040104347D0270DC7F30A00C3F3F2
:1003A0000A510290401A019040286BDAC3F31300FF
:1003B00040F4801B0098924620B10023D2EB030A40
:1003C00063EB0B0B01985946C0F14002504600F018
:1003D00025F906460D4650465946019A00F03DF96A
:1003E00010EB08006141002487EA115284EAE773A8
:1003F0001A4340D0009A62B3019A012A4FEA075289
:1004000015DC001B61EB02014FF0004202EA0752CB
:10041000CDE90042001C41F5801132462B46FFF722
:1004200053FF03B0BDE8F08F40462146F9E7001BBB
:1004300061EB0201001C41F5801300185B4120189C
:10044000A2F5001747EB030140EAD570B6196D41DC
:1004500011E06D084FEA360645EAC0754FEA0752CB
:10046000001B61EB0201001C41F5801149084FEAB5
:1004700030000019514132462B4603B0BDE8F04F21
:10048000FFF713BF0098012240000023D0EB0202C7
:1004900063EBE073009821464FEAE074B8EB00008C
:1004A00061EB0401E9E783F000435BE781F0004181
:1004B00058E72DE9FE4F81EA030404F0004421F0DF
:1004C000004100944FF0000B23F0004350EA010478
:1004D0005ED052EA03045BD0C3F30A54C1F30A5559
:1004E0002C44A4F2F3340194A0FB0254C1F3130191
:1004F00041F48011C3F3130343F4801301FB02445E
:1005000000FB034E840A970A44EA815447EA835762
:10051000A4FB076802958D0A05FB07854FEA932C1B
:1005200004FB0C542705029D4FEA065847EA16378C
:10053000B5EB08056EEB070C870E920E47EA8117A4
:1005400042EA8312A7FB0201B6EB0B0164EB000445
:100550002B0D43EA0C335E1844EB1C50DA4651462F
:10056000E7FB0201C5F313044FEA0B3343EA1453CC
:100570004FEA0432019C43EA0603A4F10C040294FE
:10058000009CCDE900B4FFF79FFE03B0BDE8F08FFB
:1005900000200146F9E7C1F30A52C1F3130140F20A
:1005A000FF3341F480119A4202DA0020014670477D
:1005B00040F233439A42A2F2334202DC524200F04C
:1005C0003CB800F02BB8000030B5041E71F10004F7
:1005D00004DB4FF00044404264EB0101141E73F150
:1005E000000405DB1C464FF00043524263EB04035A
:1005F000994208BF904230BD064C074D06E0E068C6
:1006000040F0010394E8070098471034AC42F6D359
:10061000FFF770FDC8270008E8270008202A04DB40
:10062000203A00FA02F1002070479140C2F1200305
:1006300020FA03F3194390407047202A04DB203A44
:1006400021FA02F00021704721FA02F3D040C2F1F2
:1006500020029140084319467047202A06DBCB1739
:10066000203A41FA02F043EAE07306E041FA02F36D
:10067000D040C2F12002914008431946704770B53E
:100680008D1810F8014B14F0030201D110F8012B62
:10069000231106D110F8013B03E010F8016B01F8BB
:1006A000016B521EF9D1ABB110F8012B04F00C0410
:1006B0008A1A0C2C03D0A2EB84129B1C08E010F8C1
:1006C000014BA2EB0422F8E712F8014B01F8014BB1
:1006D0005B1EF9D5A942D4D3002070BD0EB5684683
:1006E00000F022F84FF47A71009848434FF6F07109
:1006F000B0FBF1F00EBD1EB5684600F015F84FF4E2
:100700009661019848430299B0FBF1F440F296508B
:10071000001B42F2107148432B2190FBF1F046F28E
:10072000A81108441EBD00000022026042608260E1
:10073000002120E0114A126842F400120F4B1A60A7
:1007400000BF0E4A083A126802F00402002AF8D0EC
:100750000A4B343302681B681A440260074B383373
:1007600042681B681A444260044B3C3382681B6831
:100770001A448260491C1029DCD3704708240140C8
:100780002948806940F008002749886127480068A7
:1007900020F00F00254908602348406820F44040BD
:1007A000214948600846406840F4004048600846D7
:1007B000806940F4007088610846C06840F40070A9
:1007C000C8600846C06820F40070C8604FF4A040BC
:1007D000174908601748091D08600846006840F07E
:1007E0000800086000BF1248001D006800F0080003
:1007F0000028F8D10E48001D006840F004000C49A4
:10080000091D086000BF0A48001D006800F00400D0
:100810000028F8D10848064908310860074804490B
:10082000343108607047000000100240000C0140A5
:100830000424014001F08000C001FC0000C1280038
:100840002DE9F04105460F4616462C4600F0E8F823
:10085000A02000F019F9304600F016F900F0E0F899
:10086000A12000F011F904E0002000F09FF804F846
:10087000010B3846791ECFB20128F5DC012000F0CB
:1008800095F8207000F0E6F8BDE8F0812DE9F04120
:1008900004460D461646274600F0C2F8A02000F098
:1008A000F3F8304600F0F0F803E017F8010B00F021
:1008B000EBF8281EA5F10101CDB2F6DC00F0CAF874
:1008C000BDE8F0810848806940F008000649886169
:1008D0000648006820F07F40044908600846006828
:1008E00040F0EE400860704700100240000C0140EC
:1008F0000648006828B105480068401E03490860A2
:1009000002E001200249086070470000E411002065
:100910009081214208B9012100E00021024A1160C2
:10092000024908607047000090812142E4110020D4
:1009300000B51348806940F00100114988611148F1
:10094000406820F0E0600F4948600846406840F089
:10095000807048600A48806940F008000849886152
:100960000948006820F4002007490860084600682C
:1009700040F4E02008600020FFF7CCFF00BD00003D
:100980000010024000000140000C0140002109E07D
:10099000002201E0531C9AB240F6B8339A42F9DBC8
:1009A0004B1C99B28142F3DB7047000070B50546DD
:1009B000012019490860002614E0022001F0DAFD48
:1009C00001201549091F086001F0D4FD6006040EDE
:1009D0001248D0F81C012044C4B200200E49091F5F
:1009E0000860761C082EE8D3012001F0C3FD0DB18C
:1009F000012000E0002008490860022001F0BAFD53
:100A000001200649C1F8980101F0B4FD0020024917
:100A1000091F0860204670BD9C8121420080214250
:100A200010B50120094908600949C1F8980103205F
:100A300001F0A0FD002005490860012001F09AFDA9
:100A400000200349C1F8980110BD00009C8121429B
:100A50000080214210B50020094908600949C1F809
:100A60009801032001F086FD01200549091F086057
:100A700001F080FD01200349C1F89C0110BD000078
:100A80009C812142008021427CB505461BA103C9FF
:100A9000CDE90001002416E01DF80400284008B14B
:100AA000012000E0002017490860022001F062FDEB
:100AB00001201549C1F8980101F05CFD00201149A1
:100AC000091F0860641C082CE6D3012001F052FDC8
:100AD00001200C490860022001F04CFD01200A4968
:100AE000C1F8980101F046FD0648803806680020EC
:100AF0000549C1F8980130467CBD000080402010B7
:100B0000080402019C8121420080214210B5044664
:100B10003220FFF7FFFE1021A140C8B200F09EFA7C
:100B2000611C0AA001F066F84FF61F0000F02EFAD3
:100B3000621C0DA1114801F06DF81049602000F011
:100B400091F9002000F022FA10BD000020746865C1
:100B5000204B4559206F6620274225642720446F8B
:100B6000776E21210D0A0000202B204B45595F4252
:100B7000256420446F776E2120000000AC12002015
:100B800010B504461021A140C8B200F05BFA611C08
:100B900009A001F02FF84FF2DE7000F0F7F9621CA7
:100BA0000CA1114801F036F80F49602000F05AF905
:100BB000002000F0EBF910BD20746865204B45590A
:100BC000206F6620274225642720557021210D0AB9
:100BD00000000000202B204B45595F422564205522
:100BE0007021202020000000AC12002010B500244D
:100BF00007E0264850F824004100244840F824101B
:100C0000641C042CF5D300240CE0204850F8240088
:100C10001E49103151F82410096808431B4941F856
:100C20002400641C042CF0D300242CE0174850F856
:100C30002400B0F1FF3F10D11448103850F82400C0
:100C4000012800D11EE001211048103840F824107E
:100C5000083801682046884714E00C4850F8240002
:100C600078B90A48103850F8240000B90AE0002189
:100C70000648103840F82410083841682046884754
:100C800000E000BF641C042CD0D310BDEC12002087
:100C90003048806940F00C002E4988612E48006879
:100CA00020F00F002C4908600846006840F008005A
:100CB000086029480C30006840F0010026490C31DA
:100CC00008602548001D006820F00F002249091D1A
:100CD00008600846006840F0080008601E480C30B4
:100CE000006840F480701C490C3108601B480068A3
:100CF00020F47F60194908600846006840F40860E5
:100D0000086016480C30006840F0060013490C31AA
:100D1000086001201249886001211148C160016109
:100D20004161881E0E49886101460D48C16101621A
:100D300041620C480A4988620A4920310848C16268
:100D400009490163091D41630848054908600848CD
:100D5000486070470010024000080140000C01404C
:100D6000D41200200001214204812142810B00089D
:100D70000D0B00084FF0FF300349C8604FF088307A
:100D80000860486070470000001001404FF0FF30DD
:100D90000349C8604FF03330086048607047000076
:100DA0000010014030B5054600240021084600F03F
:100DB000E1F800F00DF900BF03E0284600F0EEF87E
:100DC000641CB4F5963FF8D330BD000000B5194857
:100DD000806940F00800174988611748006820F4CE
:100DE0004000154908600846006840F4401008605B
:100DF000081D006840F6CC4188430F49091D086072
:100E00000846006840F2333108430B49091D086069
:100E10000848806940F0100006498861FFF7B6FF76
:100E200005481030006840F4C46003491031086080
:100E300000BD000000100240000C014070B50546E6
:100E40000E461446A4F12000C4B204EB4400044949
:100E500001EB00123146284600F01AF870BD000080
:100E600008000020F0B507460C46002540F23F166A
:100E700009E0227831463846FFF7E0FFA6F110007E
:100E800086B2641C6D1C207808B1142DF1D3F0BD1E
:100E90002DE9F04306468946174600240025A04662
:100EA000B0464946404600F065F800BF1EE000F03D
:100EB0008FF800250FE037F814000121A940084001
:100EC00020B90C48008800F069F803E00A4800885F
:100ED00000F064F86D1C102DEDD308F1010000F056
:100EE000FF084946404600F045F8641C182CDED344
:100EF000BDE8F083EE110020EC11002001480088CD
:100F000070470000EC11002000B502464FF400705D
:100F100012490860401008602020091F086010482E
:100F2000C2602020091D0860091F0860C000086019
:100F3000FFF720FF4FF48060084908600848806888
:100F400083B20815091F0860FFF720FF4FF40070F7
:100F50000249091F0860184600BD0000140C01403A
:100F60000010014001B5BDF800000149088008BD2E
:100F7000EE11002030B504460D462146202000F039
:100F800041F82946212000F03DF830BD01B5BDF8FB
:100F900000000149088008BDEC1100204FF40071E9
:100FA000094A11604910121F116020211160074980
:100FB000C8602021121D1160121F1160C90011604C
:100FC0004900116070470000140C014000100140FE
:100FD0004FF4007009490860401008602020091F84
:100FE000086022200649C860202004490860091FC3
:100FF0000860C0000860400008607047140C0140A1
:10100000001001404FF400720C4B1A6052101A602D
:1010100020221B1F1A600A4AD06020221B1D1A6062
:101020001B1F1A60D2001A60054AD16020221B1DC6
:101030001A601B1F1A60D2001A607047140C01401E
:101040000010014010B504460348006820430249DF
:10105000086000F01BF810BDE811002010B5044630
:1010600003480068A0430249086000F00FF810BD73
:10107000E811002010B504460348006860400249AA
:10108000086000F003F810BDE811002001200749B6
:101090000860074801780748C06861F30F200549D8
:1010A000C86000200449C1F8880170478881224245
:1010B000E8110020001001400080224210B50F48C6
:1010C000806940F010000D4988614FF033300C49C1
:1010D00048600A48806940F0200008498861094852
:1010E000006820F44060074908600846006840F442
:1010F00040700860FF20FFF7A5FF10BD0010024000
:10110000001001400014014000B501210020FFF74C
:1011100079FF4FF47A70FFF739FC00210120FFF7C7
:1011200071FF41F290711020FFF76CFF4FF41C51DA
:101130006020FFF767FF01216120FFF763FF0221B5
:101140004620FFF75FFF48F210011320FFF75AFF18
:1011500048F2FE011220FFF755FF4FF4A061022074
:10116000FFF750FF41F230010320FFF74BFF40F241
:1011700003313020FFF746FF40F203313120FFF703
:1011800041FF40F203313220FFF73CFF4FF4407142
:101190003320FFF737FF03213420FFF733FF40F2FE
:1011A00003313520FFF72EFF14213620FFF72AFFE9
:1011B00040F203313720FFF725FF40F2033138209A
:1011C000FFF720FF40F203313920FFF71BFF4FF4F8
:1011D00040713A20FFF716FF03213B20FFF712FF73
:1011E00040F203313C20FFF70DFF4FF4A0513D20AA
:1011F000FFF708FF4FF400719220FFF703FF40F262
:1012000003319320FFF7FEFE40F60D019020FFF71B
:10121000F9FE41F218010320FFF7F4FE40F27311CA
:101220000720FFF7EFFE00BD10B543F20801E320F1
:10123000FFF7E8FE1221E720FFF7E4FE41F231213B
:10124000EF20FFF7DFFE00210120FFF7DBFE4FF468
:10125000E0610220FFF7D6FE41F230010320FFF7E4
:10126000D1FE00210420FFF7CDFE40F20721082027
:10127000FFF7C8FE00210920FFF7C4FE00210A2065
:10128000FFF7C0FE00210C20FFF7BCFE00210D205F
:10129000FFF7B8FE00210F20FFF7B4FE0021102059
:1012A000FFF7B0FE07211120FFF7ACFE002112204E
:1012B000FFF7A8FE00211320FFF7A4FEC82001F0CD
:1012C00047F941F290611020FFF79CFE40F2272180
:1012D0001120FFF797FE322001F03AF91D2112206C
:1012E000FFF790FE322001F033F94FF40061132034
:1012F000FFF788FE14212920FFF784FE0B212B2005
:10130000FFF780FE322001F023F900212020FFF7B3
:1013100079FE00212120FFF775FE07213020FFF71D
:1013200071FE40F207713120FFF76CFE062132207A
:10133000FFF768FE40F204713520FFF763FE41F6C7
:1013400004713620FFF75EFE04213720FFF75AFEB6
:1013500000213820FFF756FE40F206713920FFF7D2
:1013600051FE40F201713C20FFF74CFE0F213D2061
:10137000FFF748FE00215020FFF744FEEF215120E7
:10138000FFF740FE00215220FFF73CFE40F23F11E4
:101390005320FFF737FE4FF41C516020FFF732FE59
:1013A00001216120FFF72EFE00216A20FFF72AFEAF
:1013B00000218020FFF726FE00218120FFF722FE7A
:1013C00000218220FFF71EFE00218320FFF71AFE76
:1013D00000218420FFF716FE00218520FFF712FE72
:1013E00010219020FFF70EFE00219220FFF70AFE49
:1013F00003219320FFF706FE4FF488719520FFF735
:1014000001FE00219720FFF7FDFD00219820FFF746
:10141000F9FD41F218010320FFF7F4FD40F27311CA
:101420000720FFF7EFFD10BD2DE9F0411F480088B0
:1014300000F00100B8B31D48008820F001001B49EE
:1014400008801A4818300088441C18481430008856
:1014500044EA00441648844211D300240846008818
:1014600040F0100008800020104914310880091D48
:1014700008800E48008820F010000C4908804FF4C6
:101480006160B4FBF0F5B4FBF0F100FB11443C20CB
:10149000B4FBF0F6B4FBF0F100FB11473A463146DD
:1014A000284600F007F8BDE8F0810000042800405D
:1014B00080510100F0B58BB004460D461646FFF78B
:1014C0001DFD07464FF47840FFF760FD2B4622468E
:1014D00006A101A8009600F09DFB01A99020FFF74E
:1014E000C1FC3846FFF752FD0BB0F0BD2074696DAA
:1014F00065203D20253032643A253032643A25306B
:101500003264000070B50346C3EB03108000C0EBEB
:1015100000108000C1EB011500EB85008418224803
:10152000C06940F0C050204DE8612048006840F498
:1015300080701E4D28601C48406A40F001001A4D22
:10154000686200BF1848406A00F002000028F9D025
:101550004FF40240144D28621548008840F01000F6
:10156000134D288000202D1D288049F63F402D1D59
:101570002880200C0E4D143528802D1D2C80012034
:101580000B4D2D1F2880281D008820F010002D1DD8
:1015900028800320012585404609B60006F1E02693
:1015A000C6F8005100BF70BD00100240007000403E
:1015B0000428004010B5FFF709FC0020FFF7A4FC49
:1015C000094908800846008848F23021884202D143
:1015D000FFF79AFD01E0FFF727FE0020FFF794FCDC
:1015E0000149088010BD0000F011002010B500F086
:1015F00001F810BD0CB50020019000903348006840
:1016000040F480303149086000BF3048006800F481
:10161000003000900198401C0190009818B9019882
:10162000B0F5A06FF1D12948006800F4003010B186
:101630000120009001E0002000900098012843D193
:101640002348006840F010002149086008460068FF
:1016500020F0030008600846006840F002000860BF
:101660001A4840681949486008464068486008467A
:10167000406840F4806048600846406820F47C1070
:1016800048600846406840F4E81048600846006832
:1016900040F08070086000BF0C48006800F00070E7
:1016A0000028F9D00948406820F003000749486045
:1016B0000846406840F00200486000BF03484068A8
:1016C00000F00C000828F9D10CBD00000010024009
:1016D000002002400F48806940F004000D498861F5
:1016E0000D48006820F00F000B49086008460068AC
:1016F00040F00800086008480C30006840F0010025
:1017000005490C31086000BF044800680028FBD080
:101710007047000000100240000801400001214213
:1017200002480068401C014908607047D811002039
:1017300010B5002100200022214B5B6803F00C0152
:1017400021B1042906D0082928D107E01D4B1E4CE1
:10175000236027E01B4B1C4C236023E0184B5B6885
:1017600003F47010164B5B6803F48032022303EB22
:10177000904022B9154B4343134C23600DE0104BAE
:101780005B6803F4003323B1104B43430E4C2360DA
:1017900003E00C4B43430C4C236003E0094B0A4C21
:1017A000236000BF00BF064B5B68C3F30313084C04
:1017B000E15C054B1B68CB40034C236010BD00006F
:1017C0000010024000127A00F411002000093D00D0
:1017D000F811002010B51348006840F001001149CD
:1017E000086008464068104908400E4948600846AD
:1017F00000680E4908400B4908600846006820F45C
:10180000802008600846406820F4FE0048604FF4DD
:101810001F008860FFF7EAFE4FF00060044908608F
:1018200010BD0000001002400000FFF8FFFFF6FEB0
:1018300008ED00E070B5FFF77BFF154800684FF436
:101840007A72B0FBF2F1481EB0F1807F00D31BE04A
:10185000481E4FF0E022506150170F22002807DA8F
:1018600013071D0E0B4B00F00F04241F1D5503E042
:1018700013071C0E084B1C5400BF00204FF0E02241
:1018800090610720106100BF00200449086070BD0E
:10189000F411002018ED00E000E400E0D811002071
:1018A0002DE9F0410020FFF771FBFEF717FFC0F5AF
:1018B0007A742046FEF7A5FC05460022134BFEF77E
:1018C00031FC07463A460B4611A1164800F0A2F932
:1018D00014493020FFF7C6FAFEF70DFF8046FEF7E9
:1018E00090FC06460022104BFEF71CFC04462246E4
:1018F0000B460EA10B4800F08DF90A494820FFF76E
:10190000B1FA0020FFF742FBBDE8F081000024405F
:101910002024205265733A20252E316C662525201F
:1019200020000000AC12002000408F4020242054F2
:10193000656D703A20252E326C6643202000000031
:1019400000BF00BF00BF00BF704700002DE9F0419D
:1019500040F21F50FFF71AFB00BF114800686421D6
:10196000B0FBF1F00F49096808440F4908600846C8
:101970000068FEF746FC064600220C4BFEF7D2FB41
:10198000044622460B460AA10E4800F043F90D49D1
:10199000A820FFF767FA0020FFF7F8FABDE8F0810A
:1019A000D811002000000020040000200000244086
:1019B0002020436E743A202530382E316C66207317
:1019C00020200000AC1200202DE9F0410420FFF798
:1019D00051FB9620FEF79EFF002204211448FEF7DB
:1019E00055FFFEF77BFEC0F57A742046FEF709FC32
:1019F000054600220F4BFEF795FB07463A460B467D
:101A00000DA000F0F7F8FEF776FE8046FEF7F9FB32
:101A1000064600220D4BFEF785FB044622460B4688
:101A20000BA000F0E7F80FA000F0E4F8BDE8F081AB
:101A300004000020000024405265733A25362E3100
:101A40006C662025252020202000000000408F40CB
:101A500054656D703A2025362E326C66202A43205C
:101A6000202000000D0A000010B50446E068C8B14F
:101A700000BF0D480068216862681144884211D394
:101A800000BF09480068206020698047A0680128DD
:101A900003D9A068401EA06004E0A068012801D11D
:101AA0000020E06010BD0000D81100200121C160BD
:101AB0007047000010B5044600BF0348006820606E
:101AC0002069804710BD0000D811002030B50446C1
:101AD0000D4600BF04480068206062602561A36075
:101AE0002046FFF7E3FF30BDD811002000B50448C1
:101AF000406920B103490988C8B200F005F800BD6B
:101B0000008008420444004000BF0349C96900291D
:101B1000FBD002490880704700800842044400401E
:101B200070B50546FFF704FE2D48406800F480605C
:101B300048B12B484068C0F30220C01E29490968FB
:101B400021FA00F401E0274804682548806940F044
:101B50000100234988612448406820F00800224998
:101B600048601F48806940F004001D4988611F4893
:101B7000006820F47F401D4908600846006840F472
:101B80000B40086019480C30006840F00800174905
:101B90000C3108601248C06940F400301049C86137
:101BA0000846006940F4003008610846006920F4E6
:101BB00000300861B4FBF5F00D49088042F22C00BA
:101BC000091D0880262000F01F02012191404209D2
:101BD000920002F1E022C2F8001100BF70BD0000C7
:101BE00000100240F41100200000014000080140F4
:101BF000084400400FB4054B10B503A9044A0298ED
:101C000000F0DEF810BC5DF814FB00009925000818
:101C1000081200200FB4084B10B504A902AA0398BB
:101C200000F0CEF8044602A9002000F060FC204637
:101C300010BC5DF814FB0000EF24000802E008C8A7
:101C4000121F08C1002AFAD170477047002001E036
:101C500001C1121F002AFBD1704700002DE9FF5F70
:101C6000DDE90220010DDDF838B0024318D044F65A
:101C70001050A1F2FF3141430D140F98012820D0DC
:101C8000A5EB0B00401C5FEA000A4FF00004474E32
:101C9000DFF81C91A046504616D5CAF1000728E08F
:101CA0000F98012443A2012808D0002100980F9B1F
:101CB000C0E90021C0E90243BDE8FF9F6FEA0B01C4
:101CC000F4E7CBF10000DEE7074612E0F80707D0A3
:101CD0002246334640464946FEF7EBFB804689469E
:101CE0002246334610461946FEF7E3FB04460E46ED
:101CF0007F10002FEAD1DDE90201BAF1000F424660
:101D00004B4602DAFEF7D5FB01E0FEF70BFA04467C
:101D10000E460022284BFEF757FC03D84FF0FF3049
:101D2000014607E00022254B20463146FEF71AFB0C
:101D3000FEF731FC102409E0002C0ADB0A22002304
:101D4000FEF782FA019B30321A55641E50EA0102F6
:101D5000F2D1641C019AC4F1110314440F9A012AB0
:101D600003D0012208430DD10AE0084304D000202B
:101D70004FF0110B0F9080E7A3EB0B056D1E0DE0EC
:101D80005B4504DD4FF0000205F1010504E003DAD4
:101D90004FF00002A5F10105002AECD000980F9940
:101DA000C0E90231C0E9004586E700000000244098
:101DB0000000F03F300000000000F0430000E03F72
:101DC0002DE9FF4F95B09B468946064600250FE258
:101DD000252877D100242746F84A0121059400E000
:101DE000044316F8013F203B01FA03F01042F7D1FB
:101DF00030782A2811D06FF02F033078A0F130020C
:101E0000092A16D8059A44F0020402EB820203EB79
:101E100042021044761C0590EFE759F8042B059216
:101E2000002A03DA504244F40054059044F00204BE
:101E3000761C30782E2816D116F8010F44F00404D1
:101E40002A280DD06FF02F023078A0F13003092B33
:101E500009D807EB870302EB4303C718761CF3E7A7
:101E600059F8047B761C30786C280FD006DC4C289F
:101E700017D068280DD06A2814D104E0742810D037
:101E80007A280FD10DE044F400140AE044F48014E1
:101E900001E044F440147278824202D104F58014C7
:101EA000761C761C307866280BD013DC582877D047
:101EB00009DC002875D04528F6D04628F4D04728FC
:101EC0001AD19DE118E0632835D0642879D06528BF
:101ED00012D195E1702873D008DC6728F1D0692809
:101EE0006FD06E280DD06F2806D1B5E073282CD0A6
:101EF000752875D0782874D05A46179990476D1C6C
:101F000075E1C4F30250022809D003280DD0D9F896
:101F1000001004280DD00D6009F1040967E1D9F81B
:101F20000010EA17C1E90052F6E7D9F800100D8059
:101F3000F2E70D70F0E719F8041B8DF8001000208F
:101F40008DF80100EA46012003E059F804AB4FF098
:101F5000FF3061074FF0000102D40DE008F10101EC
:101F60008846B9420FDA8045F8DB1AF808100029D4
:101F7000F4D108E008F1010188468142FADB1AF841
:101F800008100029F6D105985B46A0EB080721460A
:101F90003846179A00F094FA284400EB080507E049
:101FA0004DE029E10DE01AF8010B5A4617999047C8
:101FB000B8F10108F7D25B4621463846179A13E17B
:101FC00042E00A220092C4F302524FF0000A022AB1
:101FD00008D059F804CB032A4FEAEC710AD00DE07F
:101FE00029E02AE009F1070121F00702F2E802C125
:101FF000914609E00FFA8CFC4FEAEC71042A03D1F8
:102000004FFA8CFC4FEAEC71002907DA0A460021EE
:10201000DCF1000C61EB02012D2202E0220504D567
:102020002B228DF80420012203E0E20701D02022B8
:10203000F7E7904659E00A2102E010220DE0102156
:102040004FF0000A00910BE010224FF0000A44F01C
:1020500004040827009203E008224FF0000A0092CF
:10206000C4F30252022A05D059F804CB0021032AF6
:1020700008D009E009F1070121F00702F2E802C1E6
:10208000914605E01FFA8CFC042A01D10CF0FF0CEC
:102090004FF00008220728D5702806D0009B83F057
:1020A000100353EA0A0305D00EE040228DF8042005
:1020B000012208E05CEA010206D030228DF80420FB
:1020C0008DF8050002229046009B83F0080353EA36
:1020D0000A030AD15CEA010201D1620705D5302268
:1020E0008DF804204FF001087F1E582804D034A03A
:1020F00003900EA802900DE036A0F9E75346604623
:10210000009AFEF7A1F884460398825C0298401E6C
:10211000029002705CEA0100F0D1029806A9081A48
:1021200000F1200A600702D524F4803400E0012782
:10213000574502DDA7EB0A0000E0002000EB0A0192
:10214000009005984144401A0590E00306D45B4690
:102150002146179A059800F0B3F90544002706E0D8
:1021600001A85A46C05D179990476D1C7F1C4745D2
:10217000F6DBE0030CD55B462146179A059800F084
:102180009FF9054404E030205A46179990476D1C8A
:102190000099481E00900029F5DC08E00298029999
:1021A0005A460078491C0291179990476D1CBAF164
:1021B0000001AAF1010AF1DC65E100000928010033
:1021C00030313233343536373839616263646566AD
:1021D000000000003031323334353637383941426F
:1021E000434445460000000000F058F90544761CC1
:1021F000307800287FF4ECAD19B02846BDE8F08FA8
:10220000620700D4062709F1070222F0070CFCE858
:102210000223E14603F000485FEA080C02D00FF207
:10222000702C0DE05FEA045C02D50FF2682C07E029
:102230005FEAC47C02D00FF2602C01E0AFF2700CB8
:102240004FF0FF3823F00043CDF850C065280CD084
:1022500006DC452809D046281DD047283DD13DE061
:10226000662818D067287ED138E00021112F01DBC5
:10227000112000E0781CCDE9000106A90EA8FFF7A7
:10228000EDFCDDE90F010E9A03910021009207F1A8
:10229000010A04914DE04FF000400097CDE9011094
:1022A00006A90EA8FFF7DAFCDDE90F0203920E9BE8
:1022B00011990022DDF80CA00093049211B9791C49
:1022C00000EB010AB7EB0A0004D4C0F1FF3007F1BC
:1022D000010A0490AAEB0700019044E0012F00DA04
:1022E00001270021112F01DD112000E03846CDE942
:1022F000000106A90EA8FFF7B1FCDDE90F010E9A57
:102300000391002104910092BA4621070CD403994D
:10231000514500DA8A46BAF1010F05DD009AAAF1AB
:102320000101515C302908D0B84202DA10F1040FE3
:1023300006DA0121CDE9011015E0AAF10101E9E772
:10234000002805DC049901440491AAEB000102E095
:10235000411C514500DD8A460499401A401C0190F9
:102360004FF000400290200704D40198504501DB53
:10237000CDF8048000208DF84F0002980DF14F0732
:10238000B0F1004F25D02B200E9002984FF002089C
:1023900000280CDA404202902D200E9007E00A211E
:1023A0000298FDF73BFF3031029007F8011DB8F1AC
:1023B0000001A8F10108F2DC02980028EFD1791E93
:1023C0000E980870307800F0200040F0450007F8C3
:1023D000020D12A8C01B00F107081498007800B184
:1023E000012000EB0A01019801EBE07105984144DE
:1023F000401A401E0590E00306D45B462146179A1A
:10240000059800F05DF805441498007818B15A4614
:10241000179990476D1CE00324D55B462146179A17
:10242000059800F04DF805441CE00498002807DBEF
:10243000DDE90301884203DD0098405C179901E063
:10244000179930205A469047049805F10105401C21
:1024500004900198401E019004D12E205A461799ED
:1024600090476D1CBAF10001AAF1010ADDDC05E01C
:1024700017F8010B5A46179990476D1CB8F10001E7
:10248000A8F10108F4DC5B462146179A0598ABE6F3
:102490002D0000002B000000200000002DE9F0417D
:1024A000044600251E461746880404D405E0394634
:1024B0002020B0476D1C641EF9D52846BDE8F08188
:1024C0002DE9F041044600251E469046C80301D57B
:1024D000302700E02027880404D505E0414638462F
:1024E000B0476D1C641EF9D52846BDE8F0810A6826
:1024F000531C0B601070704710B5FFF719F90F48A7
:1025000000684FF47A71B0FBF1F00D4908600B4898
:1025100000684FF47A71B0FBF1F0B0FBF1F00949BB
:1025200008600948006840F0807007490860074863
:10253000006840F001000549086010BDF41100205A
:10254000DC110020E0110020FCED00E0001000E0B4
:102550000022064B5A60064A126800FB02F100BFD7
:10256000024A52688A42FBD370470000001000E024
:10257000DC1100200022064B5A60064A126800FB5C
:1025800002F100BF024A52688A42FBD37047000042
:10259000001000E0E011002000B502460B46D0B26A
:1025A000FFF7B2FA104600BD08B5FFF793F8FFF742
:1025B000A3FFFFF73FF94FF41640FFF7B1FAFEF71C
:1025C00067FBFEF7B5F9FEF779FDFEF7D9F8FEF7E0
:1025D000F1FFFEF777F937223B211720FEF792FF34
:1025E000102204216846FEF72BF9564900988842CC
:1025F00017D00A20FFF7ACFF5248009010220421A8
:102600006846FEF743F90A20FFF7A2FF00204E4973
:102610000860002204214C48FEF738F90A20FFF731
:1026200097FF002204214848FEF70AF9464800684F
:10263000464908600020FEF7A9FC4FF6FF70FEF740
:1026400091FC4FF6FF70FEF7ADFB4FF47840FEF7BC
:102650009DFC3FA10020FEF705FC43A19020FEF762
:1026600001FC47F6FF70FEF791FC44A1C020FEF785
:10267000F9FB48A1D820FEF7F5FB002302224B49C5
:102680004B48FFF723FA002301224A4948481430F7
:10269000FFF71CFA00236422474945482830FFF71A
:1026A00015FA0023C822454941483C30FFF70EFA8D
:1026B00000234FF47A7242493D485030FFF706FA42
:1026C00000234FF47A723E4939486430FFF7FEF92F
:1026D00000234FF47A723A4935487830FFF7F6F91B
:1026E000002341F27072374931488C30FFF7EEF920
:1026F0000120FEF7B3FC2E488C30FFF7DBF91FE01A
:102700002B48FFF7B1F92A481430FFF7ADF92848F4
:102710002830FFF7A9F926483C30FFF7A5F92448EF
:102720005030FFF7A1F922486430FFF79DF92048A7
:102730007830FFF799F91E488C30FFF795F930BFD4
:10274000DEE70000AA5555AA000000200400002082
:10275000202D2D2048656C6C6F2C20786B77792E9E
:10276000202D2D20000000002074696D65203D2083
:1027700032333A35393A353500000000202A2043FB
:102780006F6D70696C65642054696D65202A202026
:102790000000000031363A34393A3038204D617249
:1027A000203132203230313600000000ED0B0008BD
:1027B0000C120020F10800084D190008A1180008AB
:1027C00041190008C9190008E82700080000002086
:1027D0000C1200007E060008742E00080C12002067
:1027E000041100004C1C0008023700010316800190
:1027F00002611EE13292CC02012A6A23600C02209F
:102800000F30063006FE1FFE1F3006380718030A79
:102810002007180318038C01023172201700E0030F
:10282000F80F9C0E8C1C8C188C009800F801E007A7
:10283000800E800E100B189C18B80CF00FE003806F
:1028400026A15A10090E181B0C110C1106021011AA
:102850000311039B018E01C038C06C60446044309A
:102860000260071844186C0C38BE1005E001F00334
:102870007A10140618063003F001F000F8009C31BD
:102880000E33061E061C02E0063FFC73F021B892D0
:102890000C020121E7100B0200038001C000C00000
:1028A0006002D230022114211C155E12032A151673
:1028B0003220123570120302D20602111425A22111
:1028C0004ED6208821481008D806F807E00130D2FB
:1028D000052AEAC405FC3FFC3FE8092C301200023F
:1028E000021B806C080534E007E00790253AF57F6D
:1028F000750C155C351045624564D17AE00A03F029
:1029000007380E180C0C1802D409180C380EF007F2
:10291000E003B0214C0C071901F00198018808036D
:10292000A16043F80F5E220002219C35F025ECD017
:10293000071800FC1FFC1F90100701F807180E0C69
:102940000121C81805C003C00751113C4192021073
:10295000F8904C0B0C000E000F000F800DC03003E0
:10296000116B270C0CB209148513F80F90318930C4
:1029700009EC03FC071C0E001C98115E0005101CDE
:102980000C180E602009C007F00F381C18183254BC
:1029900009CC03EC0F3C0E1C1C2006121C2031D26B
:1029A0004582357C16C07A3AE0C85A70DE0514803C
:1029B000215384073806F007F0078CE005380CF83F
:1029C0000F604130521C2430091C1C381EF81BE0DB
:1029D00019D1130C1CC00B1BF0018A012114011F1B
:1029E00030091ACE1C0510001C80720416F8DC1A7F
:1029F000F85C17800F600A1810F8C3F81F080D1E46
:102A00001405180708003800F00114121F61161F82
:102A10009C13013814091770796E6D2603FD2E037F
:102A20003D7C03400C18180420C229224A11440995
:102A300002EC0C221113E20C024004201818980337
:102A400015D4200403C00602396E2218022C07F8A0
:102A50003FF83F1C70AF052119D9106C0503FC0F1E
:102A60000C5E0310040CFC070E1A18A541021E1878
:102A70000003FA0770BC0A1F38381C300C7006605F
:102A8000DD04E008600C701C30F01F903C08FE0371
:102A9000FE0F060E06A105B1022DB305E8050EFED8
:102AA0000FFEA01DCC048DA20529AEADB0053D38AA
:102AB00003C5A211DC4DBB032D27038005F81FF8C9
:102AC0001F0E4DD303DDCA043C0C0FF83F3C780EBB
:102AD0006006E007C0810411A11DC5031533DC09A0
:102AE0000EC03CF0F83FE00FBF03A23002319EB1B0
:102AF000120F260C3080070D15A0050214060225C2
:102B000031DC063807F003E0B004353A10140C0647
:102B10000606038601C60066007600DE008E01060A
:102B20000312360C64DD4105021B18022530CD214D
:102B30000320050EE01EF0024336D8022366CC02C5
:102B400052C601E40586C386C32010041C303C0233
:102B5000126C0212CC0210058C310C3302123602B8
:102B6000123C02E638201C05E007F81F9904193EC4
:102B7000A303C002F80806600E701C38F8401BFC66
:102B80000F02CA38920E190CC407916082E05E14DD
:102B90000907E006630E3F1C3CE0CEF79106198260
:102BA00058041F06389C1E38C00876074C49B20EE0
:102BB000106030065DDE041D9B051BF80330331EDC
:102BC00000401C050E301C1C1005ED000308042AF3
:102BD0007FFE7F10E95EA97E07101818204303606E
:102BE000BC6D14072D16072D94091405700760039A
:102BF000631DE005E13023C3610283663302236C69
:102C00001B02CC092C1A3C1E380E380E31051C094B
:102C10000FE00C70183030183F043C040EC0075E03
:102C200004140503E00670F71D8107D006300E601E
:102C300007E0602D79044C08301C383818300C65DA
:102C4000030D1C80075C05FC7FFC7F6D07DD7C07A6
:102C50002D2708253EED10082FE003AE06011E02C9
:102C600021282DA60A6DA6094DA8091D64096D0E1F
:102C70000B7E03A009F1600221000261601D820742
:102C80001D4407256C3F6003D7042919013901123F
:102C9000FF010D39AE0A9D4A081805F003F807AA8E
:102CA0002C070C000FF00FF8B1081F0C1C5C080F6C
:102CB00016F01820041ED8A80B1E38370881012DE5
:102CC000E0070F17D803DA091D9A096F300E39098A
:102CD0002DA3081E309009EEC00009711F2805C001
:102CE0001BF01F368160000719301CF01FC01B60ED
:102CF0001E0F83066E18D4051952EC051CF00FC088
:102D0000F00644040FC00FDA2D9C0855E4B1020D03
:102D100017D40A1E0DFA093DCA0961011D60092474
:102D2000050FE00D002A6E06AA0895204F07F86AE5
:102D300009D1010D16F00A0215C002012E3041DE44
:102D4000EC04F80078BE0C1C050C0C060C6A0D1087
:102D50000DCC006C00FC009C018C030C03120E10C7
:102D60000C560C011C020D169009E0097C3CFF7EFC
:102D7000C7E383C1020D16EA0B062398200510E075
:102D800099101D0E0E0A17C0700916A00D16EA073D
:102D90000917700D151B081EB06E07FE70E20D0EB0
:102DA0001830140D1E037A0E1D1A0B1DF2093D0674
:102DB0000C0D15900C1D020F0919A00F170780EAC2
:102DC0000D09106A1238C01D4C0B0D15DB0A4DFEA3
:102DD000053E18920F1DB7060E140300068DF80F5E
:102DE0003008C141C141C3616301323601321C0167
:102DF0000D16F00F3E1CF70952605A1D5E061D7538
:102E0000061E38E10B0117C01D36061D38062E18A8
:102E100028102FE00C940A2D3E064DF00D1DA20D3A
:102E20001D700C0D159A0C0D1B800D8D300B8D3205
:102E30000E2DE205BA40D63D900F0D259009CD220A
:102E4000119E6024069DC60FB3030048FEC0A80E65
:102E50005D74050C063010F81F080FF40539817CED
:102E600004A24A04C50E2C08020304060708094AF6
:042E70000600000058
:04000005080000ED02
:00000001FF
